:100000000C94E5050C9402060C9402060C9402066E
:100010000C9402060C9402060C9402060C94020640
:100020000C9402060C9402060C942D310C940132AF
:100030000C946E2B0C9402060C9402060C9402068F
:100040000C9402060C9402060C9402060C94020610
:100050000C9402060C94112C0C9402060C940206CB
:100060000C9402060C9402060C9402060C940206F0
:100070000C9402060C9402060C9402060C940206E0
:100080000C9402060C9402060C9402060C940206D0
:100090000C94D0290C9402060C9402060C940206CF
:1000A0000C9402060C9402060C9402060000000058
:1000B000000000000000000000000000000000FE42
:1000C000FE0000000000001919000000000E0E00E4
:1000D000000E0E00000000000000000020FCFC20CC
:1000E000FCFC2000021F1F021F1F0200003078CE00
:1000F0008E18100000040C38390F0600383800C084
:10010000F03C0C00303C0F03001C1C000098FCE489
:10011000BC1880000F1F10110F1F11000000101ECF
:100120000E00000000000000000000000000F0FCD5
:100130000E0200000000071F382000000000020E21
:10014000FCF00000000020381F07000080B0F0C065
:10015000C0F0B0800006070101070600008080F0B3
:10016000F080800000000007070000000000000091
:10017000000000000040643C1C0000000080808003
:1001800080808000000000000000000000000000EF
:10019000000000000000001C1C000000000000C067
:1001A000F03C0F03303C0F0300000000F0F80C841B
:1001B0004CF8F000070F1910180F0700001018FC7A
:1001C000FC0000000010101F1F10100000181C047D
:1001D00084FC7800001C1E131110100000181C84F1
:1001E00084FC7800000C1C10101F0F00C0E03018B9
:1001F000FCFC0000010101011F1F0100007C7C4488
:1002000044C48400000C1C10101F0F0000F0F84CB8
:1002100044C48000000F1F10101F0F0000040404CE
:10022000C4FC3C000000001F1F0000000078FCC45C
:1002300084FC7800000F1F10111F0F000078FC8451
:1002400084FCF80000001010180F070000000038B0
:10025000380000000000001C1C00000000000038F6
:10026000380000000040643C1C0000000080C060BA
:100270003018080000000103060C080000202020B0
:1002800020202000000202020202020000081830B2
:1002900060C0800000080C0603010000000C0EC2C4
:1002A000E23E1C000000001919000000F8FC04C424
:1002B000C4FCF8000F1F10131313010000F0F88C9A
:1002C0008CF8F000001F1F00001F1F0000FCFC84C2
:1002D000C47C3800001F1F10111F0E0000F8FC0422
:1002E000041C1800000F1F10101C0C0000FCFC0464
:1002F0000CF8F000001F1F10180F070000FCFC8412
:1003000084840400001F1F101010100000FCFC4427
:1003100044440400001F1F000000000000F8FC041B
:10032000849C9800000F1F10101F1F0000FCFC8011
:1003300080FCFC00001F1F00001F1F00000404FCC5
:10034000FC0404000010101F1F101000000000002B
:1003500000FCFC00000C1C10101F0F00FCFC80C0F7
:10036000703C0C001F1F0001071E180000FCFC0061
:1003700000000000001F1F1010101000FCFC38E0EF
:1003800038FCFC001F1F0000001F1F00FCFCF0C019
:1003900080FCFC001F1F0001071F1F0000F8FC0469
:1003A00004FCF800000F1F10101F0F0000FCFC845D
:1003B00084FC7800001F1F000000000000F8FC040F
:1003C00004FCF800000F1F10307F4F0000FCFC847D
:1003D00084FC7800001F1F00011F1E0000387CC431
:1003E000841C1800000C1C10111F0E00000404FCDB
:1003F000FC0404000000001F1F00000000FCFC00C3
:1004000000FCFC00000F1F10101F0F0000FCFC0080
:1004100000FCFC000001071E1E070100FCFC008020
:1004200000FCFC001F1F0E030E1F1F000C1C30E001
:10043000E0301C0C181C060303061C180C3C70C092
:10044000C0703C0C0000001F1F000000000404846A
:10045000E47C1C00001C1F13101010000000FEFEA6
:100460000202000000003F3F20200000030F3CF08C
:10047000C000000000000000030F3C30000002023A
:10048000FEFE0000000020203F3F000060781C06B8
:100490001C78600000000000000000000000000068
:1004A0000000000080808080808080800000000646
:1004B0000E18100000000000000000000000404086
:1004C00040C08000000E1F11111F1F0000FCFC40E7
:1004D00040C08000001F1F10101F0F000080C04090
:1004E00040C08000000F1F10101808000080C0409E
:1004F00040FCFC00000F1F10101F1F000080C040B8
:1005000040C08000000F1F12121303000040F8FCCF
:100510004444440000001F1F000000000080C04051
:1005200040C0C000008F9F9090FF7F0000FCFC4007
:1005300040C08000001F1F00001F1F00004040CC73
:10054000CC0000000000001F1F1010000000000081
:10055000CCCC000000808080FF7F000000FCFC000D
:1005600000C0C000001F1F02071D1800000404FC8B
:10057000FC0000000000001F1F101000C0C08080A1
:10058000C0C080001F1F000F001F1F0000C0C04020
:1005900040C08000001F1F00001F1F000080C040DF
:1005A00040C08000000F1F10101F0F0000C0C0408F
:1005B00040C0800000FFFF10101F0F000080C040EF
:1005C00040C0C000000F1F1010FFFF0000C0C0405F
:1005D00040C08000001F1F00000101000080C040DB
:1005E0004040400000111312121E0C000040F8F8A9
:1005F0004040400000000F1F1010100000C0C0005D
:1006000000C0C000000F1F10101F1F0000C0C0005E
:1006100000C0C00000070F18180F0700C0C000007E
:1006200000C0C000071F180F181F0700C0C000003F
:1006300000C0C000181D0702071D180000C0C00040
:1006400000C0C000000F9F9090FF7F00004040401E
:1006500040C0C00000181C1613111000808080FCE0
:100660007E0202000000001F3F202000000000FF6B
:10067000FF0000000000003F3F00000002027EFC7F
:100680008080800020203F1F000000000C06020E2A
:10069000080C0600000000000000000006E916102B
:1006A00010106000001F20202020180000003A00D9
:1006B0003B003C003D003E003F00000029001E00C2
:1006C0001F00200021002200460000003500140019
:1006D0001A000800150017002A0000002B00040073
:1006E0001600070009000A0001510251E1001D0037
:1006F0001B000600190005004C000100E000E200AC
:10070000E300000001512C0028005E5D0000450060
:100710004400430042004100400000002D0027003B
:100720002600250024002300480000002A001300B2
:1007300012000C0018001C002A00000028003300E2
:100740000F000E000D000B0001510251E5003800B2
:1007500037003600100011004C000100E4004F008B
:100760005100520050002C00280001000000010040
:100770000100010001000100010000000100010072
:100780000100010001000100010000000100010062
:100790000100010001000100010000000100010052
:1007A0000100010001000100010001000100010041
:1007B0000100010001000100010001000100010031
:1007C0000100010001000100010001000000010022
:1007D0000100010001000100010000000100010012
:1007E0000100010001000100010000000100010002
:1007F00001000100010001000100000001000100F2
:1008000001000100010001000100010001000100E0
:1008100001000100010001000100010001000100D0
:1008200001000100010001000100010000000100C1
:1008300001000100010001000100000001000100B1
:1008400001000100010001000100000001000100A1
:100850000100010001000100010000000100010091
:100860000100010001000100010001000100010080
:100870000100010001000100010001000100010070
:100880000100010001000100010001000000010061
:100890000100010001000100010000000100010051
:1008A0000100010001000100010000000100010041
:1008B0000100010001000100010000000100010031
:1008C0000100010001000100010001000100010020
:1008D0000100010001000100010001000100010010
:1008E0000100010001000100010001000000010001
:1008F00001000100010001000100000001000100F1
:1009000001000100010001000100000001000100E0
:1009100001000100010001000100000001000100D0
:1009200001000100010001000100010001000100BF
:1009300001000100010001000100010001000100AF
:1009400001000100010001000100010000000100A0
:100950000100010001000100010000000100010090
:100960000100010001000100010000000100010080
:100970000100010001000100010000000100010070
:10098000010001000100010001000100010001005F
:10099000010001000100010001000100010001004F
:1009A00001000100010001000100010000AE00AFE4
:1009B00000DA0281FFD9F1DB20A4A62EAF00A0C08F
:1009C00000A1C800AED580A81FD300408D14200020
:1009D00000000000000000002A2B2800000000009A
:1009E00000000000000000000000002900000000DE
:1009F0002C1E3420212224342627252E362D37384C
:100A0000271E1F202122232425263333362E373854
:100A10001F0405060708090A0B0C0D0E0F10111212
:100A2000131415161718191A1B1C1D2F3130232DDE
:100A3000350405060708090A0B0C0D0E0F101112DC
:100A4000131415161718191A1B1C1D2F3130354C8D
:100A50000000000000000000000000000000000096
:100A60000000000000000000000000000000000086
:100A7000000000007E0F00D4FFFFFFC700000078D9
:100A800024034500720067006F006D00610078006C
:100A9000200054004E004B002000520065006D0005
:100AA0006900780000001C03540061006E006100C2
:100AB0006B006100200059007500730075006B0029
:100AC000650000000403090409025B00030100A0A3
:100AD000FA090400000103010100092111010001CC
:100AE00022400007058103080001090401000203F8
:100AF00000000009211101000122220007058203E4
:100B0000200001070503032000010904020001037E
:100B100000000009211101000122320007058403B1
:100B200020000112010002000000086E74020000A3
:100B300001010200010660FF0961A10109621500BF
:100B400026FF009520750881020963150026FF0025
:100B5000952075089102C005010980A1018503193E
:100B6000012AB700150126B700950175108100C054
:100B7000050C0901A101850419012AA0021501260D
:100B8000A002950175108100C005010906A10105AB
:100B90000719E029E71500250195087501810295DF
:100BA00001750881010507190029FF150026FF00BE
:100BB0009506750881000508190129059505750137
:100BC0009102950175039101C00011241FBECFEF62
:100BD000DAE0DEBFCDBF12E0A0E0B1E0E0E8F9E688
:100BE00002C005900D92AE33B107D9F725E0AEE310
:100BF000B2E001C01D92AB3CB207E1F70E945D1A62
:100C00000C9495340C9400000E941318882319F05A
:100C100081E0809300010895E0E4F2E080E2DF01EA
:100C20001D928A95E9F70895CF93C82F0E94040674
:100C30008C2FCF9108950E94040681E008950895B5
:100C4000B0E0A0E0E6E2F6E00C94E133C62ED12C51
:100C5000F601A4E0EE0FFF1FAA95E1F7E82EF12CB4
:100C6000EE0DFF1DE032F1050CF05EC0E05CFD4FC3
:100C70008081841709F458C04083CC0CDD1C63E0EC
:100C8000EE0CFF1C6A95E1F7242F2052330BE9018B
:100C900074E0CC0FDD1F7A95E1F7C455DF4FB12C1E
:100CA000A12C88248394912C20912E03C5018C0DB6
:100CB0009D1D289F8001299F100D11240E0D1F1DC1
:100CC00048E050E0BE01C8018A559C4F0E94343470
:100CD000C80125E0969587952A95E1F7940102C011
:100CE000220F331F8A95E2F7C90120913303309117
:100CF0003403822B932B095F1F4F35E01695079520
:100D00003A95E1F79401002E02C0220F331F0A9496
:100D1000E2F7822B932B909334038093330328962E
:100D200031E0A316B10429F4CDB7DEB7ECE00C94A2
:100D3000FD33AA24A394B12CB7CF262F30E0F901BC
:100D4000B4E0EE0FFF1FBA95E1F790E0E80FF91F4E
:100D5000B09754F570912E03E3E0880F991FEA9540
:100D6000E1F7679FD0011124AA0FBB1FA80FB91F7D
:100D7000AA55BC4F68E0FA0101900D926A95E1F71F
:100D8000220F331F2F5F3F4F729FD001739FB00D13
:100D90001124A80FB91FAA55BC4FFA01389688E054
:100DA00001900D928A95E1F708950F931F93CF93C9
:100DB000DF9380912E034091330350913403282F09
:100DC00030E0220F331FD901A058BF4FE1E0F0E01F
:100DD000B901695F7F4FD5E076956795DA95E1F7C0
:100DE0008F0102C0000F111F6A95E2F7B801E901F7
:100DF00015E0D695C7951A95E1F78F0102C0000F4F
:100E0000111FCA95E2F7E801602B7D2B462B572B6B
:100E1000285F3F4FA217B307D9F6A3E08A9FC0010E
:100E20001124FC01E058FF4F61E070E09C01295F54
:100E30003F4FA5E036952795AA95E1F7EB0102C053
:100E4000CC0FDD1F2A95E2F79E01DC01C5E0B695C7
:100E5000A795CA95E1F78B0102C0000F111FAA9553
:100E6000E2F7D801202B3B2B422B532B08968E17F1
:100E70009F07E1F65093340340933303DF91CF9102
:100E80001F910F9108951F93CF93DF930E949B2A88
:100E9000182F0E948C11D82F60E080918C020E9444
:100EA000A40DC1E0811119C061E080918C020E9403
:100EB000A40DC2E0811111C062E080918C020E94F9
:100EC000A40DC3E0811109C063E080918C020E94EF
:100ED000A40DC4E0811101C0C0E04BE560E080E0FA
:100EE0000E94200640E210FD4EE460E081E00E9496
:100EF000200640E211FD43E460E082E00E9420060B
:100F000040E212FD43E560E083E00E9420064DE5EB
:100F100060E084E00E94200640E260E085E00E94FC
:100F200020064BE560E086E00E9420068D2F82724D
:100F300040E209F043E560E087E00E9420068D2F43
:100F4000817140E209F043E460E088E00E942006FD
:100F5000D47440E209F041E460E089E00E94200698
:100F60008091600240E2811147E560E08AE00E94E2
:100F700020064DE560E08BE00E94200640E260E044
:100F80008CE00E9420064CE460E08DE00E94200688
:100F900040E34C0F60E08EE00E942006DF91CF918D
:100FA0001F91089580910001882371F08091610262
:100FB000882321F00E94D506109261020E94430707
:100FC0000E94801C1092000181E008950E949C1DE7
:100FD0000895A0E2B0E0EFEEF7E00C94EB33FE01F1
:100FE00033969EE1DF011D929A95E9F799E0998386
:100FF0008A8360E2CE0101960E94B72CA096E2E0BF
:101000000C9407349C01215C31092B30310550F4DC
:10101000FB012281222321F0815C0E94E90720E06C
:10102000822F0895833E910571F038F4803E91053A
:1010300010F00E94040621E0F3CF873E9105C8F32B
:10104000873E9105C1F7FB01828180936002F1CF59
:10105000EF92FF920F931F93CF93DF93EC01162F24
:101060008881833041F589818530E1F4862F825073
:10107000990B7C01229610E000E04991442381F015
:101080000E151F050CF040E261E0802F0E94200643
:101090000F5F1F4F0031110581F70E9404060BC03E
:1010A0007801F1CF863061F4AE014D5F5F4F61E0B2
:1010B0008A810E949D06CDB7DEB7E6E00C9403342A
:1010C000873019F40E94D506E8CF8830A1F7E09068
:1010D0003303F090340300E040E261E0802F0E948F
:1010E00020060F5F0031C1F7133018F08A8181119B
:1010F000E2CF81E080936102F0923403E092330307
:10110000DACF84E008959C013A9521153F4150F5CE
:10111000FC01EE27F170BC0166277270AC01442718
:1011200054709C012227387094FF0EC080E1EF2B91
:1011300009F480E0672B09F08062452B09F0806498
:10114000232B89F08068089581E0EF2B09F480E07B
:10115000672B09F08260452B09F08460232B19F07E
:101160008860089580E00895CF93DF93EB010E949B
:101170008308FE010995DF91CF910895CF93DF9306
:10118000EC01805E9109089720F065E17DE02097F1
:1011900011F462EE7AE0CE010E94B4088C2F0E9416
:1011A000530ADF91CF91089581E008950E940208CB
:1011B000089508950E94D9080895A5E0B0E0E3EEEF
:1011C000F8E00C94EA3349835A83309167028981AD
:1011D0009A81311119C0662399F0222389F00E9467
:1011E0006B0E182F682F89819A810E94480E6981A1
:1011F0007A81812F0E94FA202596E3E00C94063430
:101200000E94590E182FF3CF0E946B0E69817A81CC
:10121000F1CFFC01262F408151816281738184814D
:101220000E94DD08089581E00895CF93DF93EC01DB
:1012300060E00E940909BE010E94DA08DF91CF91A7
:101240000895E1E0F0E0DF0102C0AA0FBB1F6A953C
:10125000E2F7BD01DF0102C0AA0FBB1F4A95E2F70A
:101260006A2B01C0EE0F2A95EAF7962F9823961362
:1012700002C08E2B0895E0958E230895242F462FCB
:10128000682F80918C020E9421090E94990D089577
:101290000E94681608950E946C16089508950E9491
:1012A0002E0D0E944E092FEF84E39CE021508040D8
:1012B0009040E1F700C0000008950E944F090E948D
:1012C000352C08950E944F090E94462C0895A2E0F3
:1012D000B0E0EDE6F9E00C94E9338C0161E00E94A6
:1012E00009099A838983B801CE0101960E94DA2107
:1012F000811105C080E02296E4E00C940534B80129
:1013000089819A810E94CF1A8823A1F3B80189812B
:101310009A810E94D608882369F3B80189819A814D
:101320000E94EA25882331F3B80189819A810E94BD
:10133000FD278823F9F2B80189819A810E94F21D64
:101340008823C1F2B80189819A810E94B021882343
:1013500089F2F8018281882371F089819A818A3526
:10136000FDE59F0701F158F48115ECE59E0791F02A
:101370008E3D9C4591F0C8010E94D408BCCF8C35AD
:101380002DE5920769F090F0873A9D45A1F70E94FC
:101390006209B0CF0E945D09ADCF0E944713F7CF1D
:1013A0000E948112E8CF0E948B12E5CF0E948F121B
:1013B000E2CF0E944B2B0E94F6090E949C1D0895CB
:1013C0000E94FA090E94502B089508950E94E50991
:1013D00008950E941B0608950895CF93C82F0E9478
:1013E000E6098C2F0E94E909CF91089580E00E94C0
:1013F000ED0908950E94872A0E94ED090895CF9370
:101400000E94872AC82F809162028C1779F0C093BE
:1014100062020E94DA2B60936302709364028093ED
:101420006502909366028C2F0E94ED09CF9108957A
:10143000ABE0B0E0EEE1FAE00C94EB334F83588779
:1014400069877A878B8761110E94AC111E821D8289
:1014500085E0FE013796DE01119601900D928A9586
:10146000E1F78C819D81892B61F449815A816B81DF
:101470007C818D819E810E94D2102B96E2E00C949B
:10148000073489819A8189238F3F79F3CE010196B0
:101490000E9413098111E9CFF0CFFC018081918175
:1014A0000E94980E0895CF93C82F8823B9F08CEF2F
:1014B0008C0F813AA8F46C2F809113019091140144
:1014C0000E94E72A882329F08C2F0E9469110E942C
:1014D000D9118C2F0E9461110E94D911CF910895CA
:1014E00080E28C0F883048F4C77081E001C0880F1B
:1014F000CA95EAF70E948F11EFCFEBE5EC0FE330CE
:1015000040F4F0E0EE51FE4F808190E00E94A92A65
:10151000E5CFC85AC73110F7EC2FF0E0EE0FFF1FF0
:10152000EC54FE4F808191810E94BF2AD7CF88233F
:1015300039F19CEF980F913A28F40E9469110E94AA
:10154000D911089590E2980F983050F4877091E087
:1015500001C0990F8A95EAF7892F0E949511EFCF64
:101560009BE5980F933028F490E080E00E94A92A30
:101570000895885A873120F490E080E00E94BF2AC5
:1015800008951F93CF93DF93182FEB010E94530A06
:10159000209739F4812F0E94970ADF91CF911F91F4
:1015A00008958FE99FE00197F1F700C000002197AF
:1015B000EFCF70E060E0893311F460E570E00E94E5
:1015C000C10A0895882321F00E948F110E94D91129
:1015D0000895882321F00E9495110E94D911089541
:1015E000B0E0A0E0E6EFFAE00C94E4336C01D62F13
:1015F000C72FFC011281F580F2949FE0F9220E942E
:101600008511E82E8823B9F0E12E1123A1F08C2F4B
:10161000807F803421F080E28D0F8830D0F080917F
:101620008B0382FF16C082E00E9450120E94851137
:1016300091E0E82EE926BC2EB2948FE0B822FBE0C0
:10164000FB1508F468C0EB2DF0E0E956FB4C0C9458
:10165000CE33E12CF0CF0C2F0F70C07F11F002952C
:10166000007F112399F0002359F080E28D0F88301C
:1016700010F0D11107C0802F0E948F110E94D91144
:101680008D2F41C0802F0E949F11F8CF8D2F0E9477
:10169000970A002309F43FC080E28D0F883010F0D4
:1016A000D11104C0802F0E94951103C0802F0E9489
:1016B000A5110E94D9112FC00C2F0F70C07FC0320E
:1016C00011F00295007FDD2381F0D13009F463C071
:1016D000112309F46DC0FF2009F463C0F601858170
:1016E00080FFCECF8F7085835CC080918B0382FD9D
:1016F00033C0112359F0002329F0802F0E948F114D
:101700000E94D91180E00E94530A05C080E00E9427
:10171000970A0111C7CFEB2DE850FF0B349720F447
:101720000E94872A0E94ED09EE2089F00E94811113
:1017300080FD0DC0F60112820E947B110E94BC0D3B
:10174000C6010E94EB0C0E947B110E94C80DCDB710
:10175000DEB7E9E00C940034112389F0F11006C0E3
:101760000E94BB11802B0E94E20AD5CF21E0F21229
:10177000F7CF0E94BB11802B0E94C211CCCFF11079
:1017800006C00E94CF11802F0E94E90AC4CF31E029
:10179000F31609F2F6CF112331F085E08F1508F426
:1017A000BACF802FE0CF94E09F1508F4B4CFEBCFF1
:1017B000FF2049F3D93349F4FFEF27EE33E0F1502E
:1017C00020403040E1F700C000008D2F0E94970AB2
:1017D000A2CF8C2F86958695837069F0813009F0B1
:1017E0009ACF8D2F9C2F9370111102C090E080E052
:1017F0000E94BF2A90CF8D2F9C2F9370111102C091
:1018000090E080E00E94A92A86CF8C2F837079F522
:10181000111181CF4D2F429546954770440F440FCB
:101820008D2F8F70042E01C0880F0A94EAF72D2F98
:101830002071D4FF07C02FE030E001C0220F4A958D
:10184000EAF72095C695C695C370822BC23049F041
:1018500058F4C13019F00E948A0D5DCF0E94840DAA
:101860005ACF0E94900D57CF0E94810D54CF86957C
:10187000112311F08C2F8170882309F44CCF4D2F48
:10188000429546954770440F440F8D2F8F70042E5C
:1018900001C0880F0A94EAF72D2F2071D4FF07C0EA
:1018A0002FE030E001C0220F4A95EAF72095C69557
:1018B000C695C370822BC23049F058F4C13019F07C
:1018C0000E94E70D28CF0E94E10D25CF0E94ED0D6B
:1018D00022CF0E94990D1FCFCF70112329F08C2F9A
:1018E0000E94BC0D8D2F3FCF8D2F0E94E90A8C2FB7
:1018F0000E94C80D10CFD23F51F160F4D03FB9F033
:10190000D13F81F0112309F449C0F110B9CE8C2FD9
:101910008F7121C0D33F11F1D43FA1F780918B0388
:1019200082FD26C08C2F8F71112311F314C0112357
:1019300049F084E08F1508F4EECE8C2F8F710E9451
:10194000D50DE9CE95E09F1508F4E5CEF6CF8C2FA6
:101950008F711111CDCF0E94BC0DDDCE112329F066
:101960008C2F8F710E94B30DD6CE0E94A00DD3CEC6
:10197000112349F0CF718C2F0E94BC0D63E08C2F96
:101980000E943212C8CE81E00E945012E1E0EF15B1
:1019900008F0C1CE82E00E945012BDCEF1100ACFF5
:1019A0008C2F8F71A5CF0F931F93CF93DF93EC01F3
:1019B000688179818A810E94A30E8C010E94F30DB7
:1019C0000E94800DB801CE010E94F00ADF91CF91F4
:1019D0001F910F910895CF93DF93EC018B819C8130
:1019E000892B29F08881998189238F3F51F4DF91D8
:1019F000CF910895CE010E94D30CCE010E9415090B
:101A0000F6CFCE010E9467098111F4CF0E948511A3
:101A1000882369F38A81882351F380918B0382FFA5
:101A2000E6CF82E00E945012E2CF882321F00E948C
:101A30009F110E94D911089590E080E00E94A92A88
:101A400090E080E00E94BF2A0E94AC110E94D91150
:101A500008950E9471110E941C0D08950E949C110E
:101A60000E94290D089592959F70963091F058F438
:101A7000925F9F70923058F4803F19F030F4883EA6
:101A800030F481E008959A5FF4CF843FD1F380E091
:101A90000895883EB0F3813FD1F7F3CFFC018381F5
:101AA0009481892B29F08081918189238F3F11F4C2
:101AB00080E00895808191810E94980E0E94330DEC
:101AC0000895A5E0B0E0E7E6FDE00C94EB33259641
:101AD000E2E00C940734A6E0B0E0E1E7FDE00C940E
:101AE000EB332696E2E00C94073408950E94750DBE
:101AF00008950E94760D80938D020E941C0D08951A
:101B000008950E94790D089590918D02892B0E946D
:101B1000790D089590918D0289230E94790D089581
:101B200090918D0289270E94790D08950E941406D4
:101B300008950E94960D80938C020E941C0D0895BA
:101B400080E00E94990D0895811105C081E066230F
:101B500049F080E0089590E002C0959587956A95D8
:101B6000E2F78170089591E001C0990F8A95EAF734
:101B7000892F0E94990D089521E030E001C0220FC5
:101B80008A95EAF780918C02822B0E94990D089524
:101B900021E030E001C0220F8A95EAF7209580917C
:101BA0008C0282230E94990D089521E030E001C04B
:101BB000220F8A95EAF780918C0282270E94990D64
:101BC000089590918C02892B0E94990D089590910F
:101BD0008C0289230E94990D089590918C02892787
:101BE0000E94990D08950895262F277091E001C055
:101BF000990F2A95EAF723E0769567952A95E1F7FC
:101C0000FB01EE0FFF1FE60FF71FE40FF51F50E07B
:101C100040E0682F70E08191DF0111979B01042E55
:101C200002C0369527950A94E2F72170219528275E
:101C3000292328272C934F5F5F4F4330510559F7D5
:101C40000895A82FA77023E0969587952A95E1F728
:101C5000FC01EE0FFF1FE80FF91FE60FF71F50E022
:101C600040E080E0219130E00A2E02C036952795B1
:101C70000A94E2F721703327042E01C0220F0A9440
:101C8000EAF7822B4F5F5F4F4330510559F70895B4
:101C9000262F9C3068F4883058F438E0939FB001C8
:101CA0001124680F711D48E652E0822F0E94F40D46
:101CB00008959C3070F4883060F448E0949F90015F
:101CC000112468E672E0820F932F911D0E94210E6D
:101CD000089580E00895CF92DF92FF920F931F93B3
:101CE000CF93DF936C0100918C0280918D02082BC1
:101CF000C7E0D0E010E0FC2EC8010C2E02C0959584
:101D000087950A94E2F780FD0CC02197A0F7F12C8B
:101D10008F2DDF91CF911F910F91FF90DF90CF908A
:101D20000895B6018C2F0E940315019771F3F0CF2F
:101D3000CF93DF93EC010E946B0EBE010E9403154E
:101D4000DF91CF9108951F93CF93DF93EB01909193
:101D50006702992339F0CB010E94980EDF91CF9151
:101D60001F910895882369F0CB010E946B0E182FF4
:101D7000682FCE010E94480EBE01812F0E940315DC
:101D8000EDCFCB010E94590E182FF6CF1F93CF93A2
:101D9000DF93C0918E0216E080918F028C1304C0F5
:101DA000DF91CF911F910895D0E01C9FF0011D9FFE
:101DB000F00D1124E057FD4F408151816281738104
:101DC000848195810E946B0D2196C770E5CF40916B
:101DD000C0025091C1026091C2027091C302809111
:101DE000C4029091C5020E946B0D08951F93CF937A
:101DF000DF938091C502807F09F049C08091C202C3
:101E0000882309F444C080918E02C0918F026091B2
:101E1000C0027091C102A091C302B091C402D62F3A
:101E2000D72316E0C81799F190E0109711F0DF3F23
:101E300019F401968770F6CF189F9001199F300D05
:101E40001124F901E057FD4F41814713F2CF408142
:101E50004613EFCF42814111ECCF438154814A1B9D
:101E60005B0B483C510528F78091C5028F7080615B
:101E70008093C502F901EB56FD4F80818F70806120
:101E8000808380EC92E00E94EB0C0E94C60EDF91F2
:101E9000CF911F910895A1E1B0E0E1E5FFE00C943E
:101EA000E3338C0185E0F801DE011D9601900D926F
:101EB0008A95E1F7F801E28080ECC82E82E0D82E06
:101EC0006091C3027091C4026115710509F44EC19D
:101ED0009091C0022091C102892F82238F3F09F483
:101EE00045C140815181A380B480F090C202F501C8
:101EF000E61BF70BFF2009F4EAC08091C502382FDA
:101F0000307FE83CF10508F0A3C031116DC0FE2C14
:101F1000251316C0941314C0E11012C08F70806195
:101F20008093C5020E94E70EC6010E94EB0C8091CF
:101F3000C502F80185838F2D6196EAE00C94FF338A
:101F4000A114B10429F0842F85238F3F09F027C104
:101F500080E0F82FF170DF2E80FF3CC080918E0270
:101F600020918F0236E0821315C04D875E878D85E4
:101F70009E850E94980E292F22952F702230F0F016
:101F8000243018F59F70F1F0F8019581907FD1F41D
:101F9000D12C1EC090E0389FF001399FF00D112424
:101FA000E057FD4F6181651306C06081641303C073
:101FB0006281E6120FC001968770D5CF9F7011F035
:101FC000882331F3805E883018F3C8010E94EB0C3F
:101FD000FD2CB1CFEE2009F4AECF8091C502816017
:101FE0008093C502F12CA7CF251306C0941304C01B
:101FF000F801EE2009F487C0C8010E944E0D882325
:1020000019F1EE2009F18091C502803270F0209123
:10201000C0023091C10238872F831986BB86AA86F9
:102020008C87CE0107960E94EB0C86E0F801A0ECAD
:10203000B2E001900D928A95E1F70E94F60E0E949F
:10204000E70EFF24F39477CFC8010E94EB0CF9CF81
:10205000311113C07A2DB98AA88A6E2D89890E9400
:10206000610D80EC92E00E94EB0C86E0F60111928B
:102070008A95E9F70E94E70EB5CF25130FC0941398
:102080000DC0E1100BC0F8018583C8010E94EB0C64
:1020900086E0F60111928A95E9F74DCFC8010E94BA
:1020A0004E0D882389F2EE2079F28091C5028032AC
:1020B00008F4BBCF2091C0023091C1023A8329833A
:1020C0001B82BD82AC828E83CE010196ACCFE83CF0
:1020D000F10508F03EC0FE2CEE2009F4B5CF251323
:1020E0002AC0941328C08091C50280FD1BC0982F80
:1020F000907FC1F0F8018583903F31F0982F907F59
:10210000905F8F70892B8583C8010E94EB0C86E05D
:10211000F801A0ECB2E001900D928A95E1F70E94DF
:10212000E70E09CF86E0F801A0ECB2E001900D9235
:102130008A95E1F700CFC8010E944E0D811175CF3D
:102140008091C50281608093C502C8010E94EB0C9A
:10215000F2CE7A2DB98AA88A6E2D89890E94610DE6
:1021600086E0F60111928A95E9F7D9CFEE2009F4BD
:102170006BCFC8010E944E0DF82E882309F464CF5E
:1021800086E0F801A0ECB2E001900D928A95E1F7AB
:1021900080EC92E00E944D0A0E94F60EC0CF81E0D2
:1021A0008E25D7CEACE0B0E0E8EDF0E10C94EA3358
:1021B0004F83588769877A878B879C87CE010796DC
:1021C0000E944B0F882369F08A859B85892B39F003
:1021D0004F815885842F85238F3F09F06BC016E00F
:1021E0005FC086E0FE013796DE01119601900D92E8
:1021F0008A95E1F78A859B85892B89F38F8198855C
:1022000089238F3F61F320918F0230E0C90101964D
:102210008770992740918E024817190671F40E9421
:102220002E0D10928F0210928E0286E0E0ECF2E00A
:10223000DF011D928A95E9F7D2CF96E0929FD001F7
:10224000939FB00D1124A057BD4FFE013196019010
:102250000D929A95E1F780938F020E94C60EBFCF30
:10226000819FC001112480579D4F0E944B0F8823EE
:10227000E9F0E0918E021E9FF0011124E057FD4F1E
:102280004081518162817381848195810E946B0DAF
:1022900080918E0290E001968770992780938E023C
:1022A00080918E0290918F028913DACF2C96E3E011
:1022B0000C94063469857A858B859C850E946B0D0C
:1022C0008ECF682F80911301909114010E941D2BD5
:1022D0000895682F80911301909114010E94202B82
:1022E000089580911301909114010E94232B089569
:1022F0008091CF0208958091CE0285958595859530
:1023000008958091CE02877008959091CE029770C3
:1023100081E009F480E008958091DC0208959091B5
:10232000DC02892B8093DC02089580959091DC0279
:1023300098239093DC0208951092DC020895909106
:10234000DB02892B8093DB02089580959091DB025C
:1023500098239093DB0208951092DB0208958093F6
:10236000DA0208951092DA0208958093D90208954E
:102370001092D90208958091D002089508950E9484
:10238000BE11089590918B0392FF08C09091D002E6
:10239000981721F08093D0020E94BF110895809178
:1023A000D002882329F01092D00280E00E94BF1151
:1023B0000895CF93DF93E0911301F0911401809180
:1023C000DC028083E0911301F091140180819091EF
:1023D000DB02892B80839091D002992381F0E091D8
:1023E0001301F09114018081892B80838091130166
:1023F000909114010E94D52A81110E94CF11E09181
:102400001301F09114018091D902982F9095808149
:1024100089238083E0911301F091140180819091D0
:10242000DA02892B8083C0911301D091140148E016
:1024300050E066EC72E0CE010E943D34892B59F0E9
:1024400088E0FE01A6ECB2E001900D928A95E1F7DA
:10245000CE010E949E2ADF91CF91089508950E9497
:102460002E12089590918B0392FF11C098E0899FDE
:1024700090011124622B6093CE020E94BC0D8091CA
:10248000CE028595859585950E942F1208950E940C
:10249000BC0D08951092CE0280E00E942F12089584
:1024A0009091CE02809589238093CE02282F2770A9
:1024B00091F4282F082E000C330B9217130659F0B5
:1024C00090918B0392FF07C08595859585950E9415
:1024D000C80D0E944A12089590918B0392FB222707
:1024E00020F9281769F080FB92F990938B03809173
:1024F0008A0390918B030E94BE1282E00E945012C8
:10250000089580918B0382FB882780F991E08927C9
:102510000E946C12089581E00E946C12089580E080
:102520000E946C1208956FEF7FEF90E080E00E94B0
:102530007F34089590E080E00E945B34883E9E4F97
:1025400019F40E946A1A089580E0089582E090E0EC
:102550000E945334089583E090E00E94533408951C
:10256000CF9384E090E00E945334C82F82E290E041
:102570000E945334982F8C2FCF910895CF93C92F59
:10258000682F84E090E00E9461346C2F82E290E03A
:102590000E946134CF910895AB01BC018FE090E0BF
:1025A0000E9473340895AB01BC0183E190E00E9466
:1025B0007334089560E070E0CB010E94D312089557
:1025C00060E070E0CB010E94CC120E94DA12089504
:1025D00068EE7EEF90E080E00E947F3460E082E071
:1025E00090E00E94613460E083E090E00E946134FA
:1025F00010928D0260E084E090E00E94613464E01B
:1026000082E290E00E94613460E085E090E00E9408
:10261000613460E086E090E00E9461346FEF87E013
:1026200090E00E94613440E050E0BA0188E090E020
:102630000E94733460E08DE090E00E94613440E0DD
:1026400050E0BA0188E190E00E94733460E087E1D5
:1026500090E00E94613440E050E0BA018CE190E0EB
:102660000E94733470E060E080E290E00E947F346A
:1026700040E050E0BA0188E190E00E94733480E0CD
:102680000E94831A0E94B21A0E94E01208950E94CA
:10269000E8120895682F8EE090E00E94613408955A
:1026A0000E94DA2B6093EF027093F0028093F102A4
:1026B0009093F2026093EB027093EC028093ED0230
:1026C0009093EE020895089508950E94641308956A
:1026D0000E940C0608958DE296E10E947D2A0E94D8
:1026E00063130E94651308950E94131808950895B6
:1026F00008950E9477130E94781308950E944C1643
:102700000E94EC0908950E94C52B0E94ED150E94BD
:10271000C21A0E942E180E9470170E947E130E94F7
:10272000BA1B80E00E94121C0E9438180E94681395
:1027300008950E94131881110E94AE250895AAE001
:10274000B0E0E5EAF3E10C94E3330E9493178FEDD8
:10275000A82E82E0B82E750110E0F70101917F01EB
:10276000812F0E946F161F5F1C3009F440C00817AC
:10277000A1F38091F30281FD0E9475160E947413EB
:10278000C82E10E0812F0E946F16082FF50181914D
:102790005F01081731F1D02ED826F12CEE24E394F6
:1027A0008D2D8E21B1F0CC20A1F0FE821F8391E00F
:1027B000802F8E2109F490E098870E94CE2B8160B3
:1027C000782F9A8789874E815F8168858A850E94E4
:1027D000180AF394EE0CF8E0FF12E2CFF5013197FE
:1027E00000831F5F1C3071F60E94501320C0081335
:1027F000C0CF0E94CE2B8C018091DD029091DE0231
:1028000008171907A1F08FEF89838A831B820E9422
:10281000CE2B8160782F9D838C8349815A816B8177
:102820008D810E94180A1093DE020093DD020E943F
:1028300099130E94BA1D0E94FF092A96EAE00C949F
:10284000FF33CF93DF930E940815EC01811522E539
:102850009207E8F5811531E5930708F0A3C0883E9B
:10286000910510F5803E910570F5883A910570F458
:10287000853A910508F078C08130910521F10097E3
:1028800011F1049700F5D0E0C0E01DC08F3B910529
:10289000D0F7C85AD0E0CC0FDD1FCB51DE4F0990E6
:1028A000D881C02DD4640FC0811540E5940708F08D
:1028B00066C0C11580E4D80708F05EC0CE019A95C5
:1028C00081159F4100F7CE01DF91CF9108958115C9
:1028D00036E5930718F5811545E5940708F07BC0A8
:1028E000C11584E5D80708F071C09E012370332715
:1028F0009C2F96959695C115D34508F458C0C1E014
:10290000D0E002C0CC0FDD1F2A95E2F730E2939FA2
:10291000C0011124C82BD92BDA68D5CFC1158AE59F
:10292000D80778F4C11529E5D20708F05EC0C115B3
:1029300038E5D30708F4A7CFDC2FCC27C06FD06AC7
:10294000C2CFCE0190568115904208F09CCF8D2FBA
:102950008F710E94AA1590E0982F882788279F7171
:102960009C012C2BE9013FC0C55AD0E0CD5EDD4F64
:10297000C881D0E0D064A7CFDF70D06AA4CF8370C5
:10298000992721E030E002C0220F331F8A95E2F739
:10299000C695C69580E2C89FE0011124C22BD32BB7
:1029A000DD6891CFD82FCC27C16FD06A8CCFC1E022
:1029B000D0E002C0CC0FDD1F2A95E2F720E2929F03
:1029C000C0011124C82BD92BDC687DCFDC2FCC278C
:1029D000C46FD06A78CF0E94AA15C82FD0E0DC2F30
:1029E000CC27CC27DF71D0626ECF8C2F8F700E94E6
:1029F000AA1534E0D695C7953A95E1F7CF709C2F8C
:102A0000EC01D06960CF0E94FA200E942114089541
:102A100082389105B9F1B0F48133910509F47DC094
:102A200048F48932910509F46DC08A32910509F4A0
:102A30007BC008958533910509F45FC08933910502
:102A400009F10895833E9105D9F138F4803E91054E
:102A500029F1823E910579F10895863E9105D9F1DB
:102A6000873E910509F43EC0843E910541F52091D1
:102A70008B0321FF24C080918A0384FD19C087EE57
:102A800090E0089520918A03237009F05AC02091A4
:102A90008B0323FF14C089E290E0089520918A03FC
:102AA00020FD38C030918B0330FF09C024FF43C0A4
:102AB00090E080E0089520918A0322FDF7CF0895E9
:102AC00020918A0322FD3AC030918B0330FD39C03A
:102AD00024FFF5CFEDCF20918A0323FFF0CF24FD13
:102AE000E7CFCDCF20918A0323FD2EC030918B03F9
:102AF00031FFEECF84EE90E0089520918A0325FF08
:102B0000DECFC9CF20918A0325FD21C020918B0300
:102B100023FFD5CF89E390E0D2CF20918A0326FF0F
:102B2000CECF8AE290E0089520918A0326FFC7CF96
:102B300081E390E0089583EE90E0089582EE90E0C6
:102B4000089580EE90E0089586EE90E0089585E384
:102B500090E0089590918A0392FF06C0282F287173
:102B60002830F9F4877F846093FF06C0282F2871EE
:102B70002831F1F4877E846120918B0320FF06C009
:102B8000382F38713830D9F4877F816021FF06C033
:102B9000282F28712831D1F4877E816194FD877EAA
:102BA0000895282F24712430F9F68B7F8860DCCFBC
:102BB000282F2471243101F78B7E8861DDCF382FD7
:102BC0003171313019F78E7F8860E0CF282F217165
:102BD000213121F78E7E8861E1CF10928603109219
:102BE000870310928803109289030895CF92DF9291
:102BF000EF92FF926B017C010E94131881110EC0AD
:102C00000E94DA2BC61AD70AE80AF90AC09286038C
:102C1000D0928703E0928803F0928903FF90EF90AF
:102C2000DF90CF9008950F931F930E94131888236D
:102C300029F00E94DA2B1F910F9108950E94DA2B40
:102C400000918603109187032091880330918903B6
:102C5000600F711F821F931FEECF80E008950E94C6
:102C6000931208950E9493172FEF89EF90E021505F
:102C700080409040E1F700C000000E94931780E080
:102C80000E946F1681FF04C00E942F160E94352CEF
:102C900008950E94321608950E949A12811102C06E
:102CA0000E9447130E94A6128093F3020E94B01262
:102CB00090938B0380938A030E9449160E94AB1263
:102CC0000E94810D80918C020E94960D08950895B6
:102CD0000E946716089508950E946B160895E82FC4
:102CE000F0E0E756FC4F80810895089580EA8A95C8
:102CF000F1F7089500C008950E947616089508958A
:102D00000E947F160895A6E0B0E0E9E8F6E10C9491
:102D1000E7330E941318F82E6091A503882309F465
:102D200040C086E0E82E8E010F5F1F4FF8018E2D08
:102D300011928A95E9F7862F90E0B80187569C4F4B
:102D40000E9446188823B9F080918C0390E046E0F9
:102D500050E0B80187569C4F0E943D3421E02093FB
:102D6000F402892B91F4F12C0E944B098F2D2696A9
:102D7000E6E00C9403348091F4028823A1F3F80177
:102D80001192EA94E9F71092F402A0918C03B0E05A
:102D9000A756BC4F86E0F80101900D928A95E1F7A5
:102DA000E3CF70E067567C4F80918C0390E08756AC
:102DB0009C4F0E9413190E948016D8CFF894E82FD8
:102DC000E295EF70F0E031A1282F2F7081E090E0C4
:102DD00001C0880F2A95EAF7982F9095932391A325
:102DE00092A1892B82A378940895CF93DF93C6E1B3
:102DF000D2E089918F3F11F00E94DE1682E0CE3141
:102E0000D807B9F7CEE1D2E089918F3F11F00E9447
:102E1000DE1682E0C432D807B9F7DF91CF9108956A
:102E2000B0E0A0E0E6E1F7E10C94E5337C01162F79
:102E3000042FC62FD0E0CE018A5E9D4F6C01EC01BD
:102E400028812F3F09F444C0F894E22FE295EF70F7
:102E5000F0E031A12F7081E090E001C0880F2A9549
:102E6000EAF7932F982B91A392A18095892382A3AF
:102E700078940E947A16AEE1B2E0F70144E252E0A3
:102E8000F12C602F60959D9180819F3F31F1292F1A
:102E900022952F7030E0E90128A130E09F7002C038
:102EA000359527959A95E2F720FD17C0802B8083F2
:102EB000FF24F39431964A175B0729F7F6018081C6
:102EC0008F3F11F00E94DE166F2D812F0E947C161D
:102ED000CDB7DEB7E8E00C94013486238083EACFD7
:102EE000809115018091150196E0811190E09093F9
:102EF000A50386E0891B80938C030E94F5168CE065
:102F0000E9E9F3E0DF01982F1D929A95E9F7EDE8E2
:102F1000F3E0DF011D928A95E9F786E00E94D5175C
:102F20000E9448090895ACE0B0E0E9E9F7E10C94AB
:102F3000E7338E010F5F1F4F8CE0F80111928A95E5
:102F4000E9F7F12CEE24E3944E2D6F2DC8010E9479
:102F50001017F394EE0CF8E0FF12F6CF4CE050E0BF
:102F6000B8018DE893E00E943D3421E0009709F418
:102F700020E0892B41F08CE0F801ADE8B3E001904E
:102F80000D928A95E1F76091A50370E067567C4F3A
:102F900046E08DE893E00E94D617182F0E94831612
:102FA000812B2C96E6E00C9403340895CF92DF92A7
:102FB000EF92FF920F931F93CF936C017B01042F2D
:102FC000222349F081E08093F7020E94CE2B909358
:102FD000F6028093F502C091F702C1110AC0C0E069
:102FE0008C2FCF911F910F91FF90EF90DF90CF909A
:102FF00008958091F5029091F6020E94E62B0A97BF
:1030000070F310E0A801B601C7010E943D34892B7E
:1030100041F0A801B601C7010E944A341092F7029C
:10302000DFCFC0E0FBCF8091FA02811107C00E9480
:10303000AD33882351F081E08093FA0281E09091D2
:10304000FA02913009F080E0089582E08093FA025C
:103050000E94A833F3CF0E94131808950E942B18E2
:10306000809315010E94131881110E947C18089505
:103070000E941318811102C00E947F18089581E0F8
:103080009091FB029A3008F080E008950F931F930F
:10309000CF93DF93EC018B018091FB028A30B8F46F
:1030A000B801CE010E941019C82F811122C0809151
:1030B000FB028F3FB9F40E94CE2B9093F9028093CC
:1030C000F8028C2FDF91CF911F910F91089580917D
:1030D000F8029091F9020E94E62B843F914000F79C
:1030E000C0E0EFCF8F5F8093FB028A3020F7C1E012
:1030F000E8CF1092FB02E5CF0E944F28089582E3AB
:103100000E94CA2908950F931F9398E08902F00145
:103110001124EA5EFE4F26813781232BA1F0809394
:10312000AE0560911701709118012091160130E0F1
:10313000AB0142555A4F04E610E082E30E94562943
:103140001F910F91089590E080E0FACFB0E0A0E0E9
:10315000ECEAF8E10C94DE33582E69015801C82FCF
:10316000880FDD0B4115510559F4852D0E948318F8
:1031700097FF2CC080E0CDB7DEB7EFE00C94FA33B8
:10318000CE0123E0880F991F2A95E1F7FC01EA5E42
:10319000FE4FE080F12C4E155F0508F47A018A5E3F
:1031A0009E4FFC0181809280C40182559A4F3C0160
:1031B000A7010E944A3404E610E09701A301682D9C
:1031C00082E30E94562997FFD0CFD4CFA114B10437
:1031D00029F183E0CC0FDD1F8A95E1F7FE01EA5E5D
:1031E000FE4FE380F12CAE14BF0408F47501CA5EF3
:1031F000DE4F6C817D81AB0142555A4F04E610E0F1
:10320000970182E30E947D2997FDB4CF6C817D8177
:1032100062557A4FA701C6010E944A3481E0ABCFC4
:103220000E94021A08950E94191A0895A4E0B0E0BD
:10323000ECE1F9E10C94E93360910A0370910B031E
:1032400080910C0390910D030E94F52B11E06436E0
:1032500071058105910518F10E9413166E5F7F4F6D
:103260008F4F9F4F69837A838B839C8310E000E0AC
:1032700030E020E044E050E0BE016F5F7F4F83E02C
:103280000E94A618182F882351F00E94DA2B609311
:103290000A0370930B0380930C0390930D03812F0B
:1032A0002496E4E00C940534B0E0A0E0EAE5F9E10E
:1032B0000C94E3337C015B016A010E943F1801E03A
:1032C00010E0882311F00AE010E0C1E0D0E0B50181
:1032D000C701F6010995811104C021960C171D073D
:1032E0002CF4CDB7DEB7EAE00C94FF33CC9F90010D
:1032F000CD9F300D300D112490E080E045E34A95DC
:10330000F1F70000019682179307C1F7E0CFA7E01D
:10331000B0E0EDE8F9E10C94E3337B01C0902402C6
:10332000D090250201E010E09E01295F3F4F50E060
:1033300040E070E060E081E00E94A618182F88232A
:1033400009F448C0560182E0A80EB11C6091060342
:103350007091070380910803909109030E94F52B57
:10336000643671058105910568F106E010E09E0163
:103370002F5F3F4F50E040E070E060E082E00E944D
:10338000A618D82E66E070E0C5010E94BB1B11E0B4
:103390009F81981310E01D2141F10E94DA2B609368
:1033A000060370930703809308039093090386E054
:1033B000FE013196A0E0B3E001900D928A95E1F70D
:1033C00011E013C066E070E0C5010E94BB1B9F8145
:1033D0008913CBCF86E0F6013296DE01119601907B
:1033E0000D928A95E1F71111E2CF86E0E0E0F3E07B
:1033F000D70101900D928A95E1F7812F2796EAE097
:103400000C94FF330F931F93CF93DF93EC018B0149
:1034100047E859E10E945419882331F046E159E107
:10342000B801CE010E945419DF91CF911F910F91E5
:1034300008950F931F93CF93DF93C0912402D091EF
:103440002502CE01029626E0FB01DC0101900D92DF
:103450002A95E1F766E070E00E94BB1B89836885CE
:1034600079858A859B850091FC021091FD0220914F
:10347000FE023091FF02601771078207930751F037
:103480006093FC027093FD028093FE029093FF0212
:103490000E94F615DF91CF911F910F9108950E9420
:1034A000FE2D0E9483130E940B2E08950E94102E61
:1034B0000E949F130E94332E08950E94672B0E9442
:1034C000E42D0E946B130E944F1A0E94561A0E940C
:1034D0007913FBCF83E290E00E945334833289F466
:1034E00084E290E00E945334853059F485E290E004
:1034F0000E94533491E0883109F090E0892F817067
:10350000089580E0FCCFCF93C82F6FEF811163E265
:1035100083E290E00E9461346FEFC11165E084E2C4
:1035200090E00E9461346FEFC11168E185E290E0A4
:103530000E946134CF910895089586E290E00E9440
:103540005334682F70E090E080E008950895CF93A1
:10355000C62F0E94A61A6C2F86E290E00E9461346A
:10356000CF91089580E00E94831A60E070E0CB0163
:103570000E94A71A0E9474200E94552181E00E9497
:10358000831A08950E949C1A0E949D1A0E94A61AEE
:103590000E946A1A811102C00E94B21A0895CF9344
:1035A000FB01C281CC2309F19C0122513F4520310E
:1035B000310520F582510E946521C0E08C2FCF910A
:1035C000089581E00E94BC0D43E062E081E00E942A
:1035D0003E09F3CF81E00E94C80D43E062E081E044
:1035E0000E943E09EBCF82E0F6CF8031FFE59F07D6
:1035F00089F381319F45B9F3C1E0E0CF8031EFE538
:103600009E07F9F281319F45C9F682E0DBCFEF9248
:10361000FF920F931F93CF93DF93EC01062FE88166
:10362000E150E33108F05DC0F0E0ED55FB4C0C9447
:10363000CE3319828AE08A83602FCE010E94B72C94
:10364000CDB7DEB7E6E00C9403348981823069F0AF
:10365000833071F08130D9F40E94DA2B0E94D43388
:103660006A837B838C839D83E7CF0E949D1AF6CF6C
:103670007E0182E0E80EF11C10E0812F0E946F169F
:10368000F70181937F011F5F1C30B9F7D5CF602F01
:10369000CE010E942808D0CF89818230C1F76A818B
:1036A0007B818C819D810E94D4330E94A71AC4CF54
:1036B0004B816A8189810E94362098278927982723
:1036C0009D838C83B9CF2C813D81322723273227DC
:1036D0004B816A8189810E945820AECF0E9474205C
:1036E000ABCF8FEF8883A8CF0E9408218983A4CF16
:1036F0000E940A219827892798279A8389839CCF3B
:103700006B8170E089819A81AE014C5F5F4F982791
:10371000892798270E940D218FCF6B8170E08981C6
:103720009A81AE014C5F5F4F9827892798270E94A6
:10373000312182CF0E9455217FCF0E942320D6CFF6
:103740006B8170E089819A81AE014C5F5F4F982751
:10375000892798270E94B2206FCF6B8170E0898102
:103760009A81AE014C5F5F4F9827892798270E9466
:10377000D62062CF0895FC01680F791F8FEF91E387
:103780006E177F0709F408952191822728E030E021
:1037900087FF06C0880F892721503109C9F7F0CF6C
:1037A000880FFACFB0E0A0E0E8EDFBE10C94E53340
:1037B0006C017B0164E670E088E70E945528EC010B
:1037C00097FD12C010E000E0F601E00FF11F8491B8
:1037D00064E670E00E94C128EC01892B29F40F5F98
:1037E0001F4F0E151F0581F70E94C629CE01CDB7C8
:1037F000DEB7E8E00C9401340895E6EAF3E080E0F7
:1038000092E0DF019C011D9221503040E1F7F093DE
:10381000AD05E093AC058FEF9FEF90933403809359
:1038200033030895CF93DF93D82F0E941318C82F26
:10383000882309F44CC08D2F0E94FC1B0E941F0698
:1038400080932F0380FD12C080E880932E030E9496
:103850004F286DE070E083EC99E00E94D21B892B29
:1038600039F0C0E08C2FDF91CF91089580E2EDCF49
:1038700080912F0363E070E081FD26C080EC99E029
:103880000E94D21B892B69F76DE070E080EB99E014
:103890000E94D21B892B29F70E94DA2B68577C4E95
:1038A0008F4F9F4F6093A8057093A9058093AA0539
:1038B0009093AB050E94FD1B81E0809332038093BF
:1038C000310310923003CECF8DEB99E0D9CFC1E018
:1038D000C9CF20912E0338E0839FC0011124629F3D
:1038E000800D911D1124811522E0920714F090E0C3
:1038F00080E08A559C4F9093AD058093AC05089568
:1039000080913203811103C08091310308950E9498
:10391000DA2B68577C4E8F4F9F4F6093A8057093AA
:10392000A9058093AA059093AB058091310381117D
:10393000EBCF62E070E08EEA99E00E94D21B892B07
:1039400019F781E080933103DFCF2F923F925F928E
:103950006F927F928F929F92AF92BF92CF92DF929F
:10396000EF92FF920F931F93CF93DF9380913203D7
:10397000882369F0209133033091340321153105F8
:1039800031F08091300361E070E0882399F0DF919D
:10399000CF911F910F91FF90EF90DF90CF90BF904C
:1039A000AF909F908F907F906F905F903F902F90FF
:1039B00008958F5F082F10E01B01082E02C0220C13
:1039C000331C0A94E2F7A90142215321452B89F3C4
:1039D00090912F0390FD44C08295880F807680934C
:1039E00038019801369527953695279520933B0108
:1039F000815E8093390110923C0124E630E047E07B
:103A000050E066E371E088E70E943529892B09F0D0
:103A1000BECFA80125E0440F551F2A95E1F78091FC
:103A20002F0380FD2BC04A555C4F04E610E020E2D6
:103A300030E060E488E70E945629892B09F0A7CF7F
:103A40000E94801CE101C095D09580913303909134
:103A50003403C823D923D0933403C093330397CFBF
:103A6000880F880F880F8093380110923B01895F7F
:103A70008093390183E080933C01BFCFEEE0F3E017
:103A800080E2DF011D928A95E9F7AAE2B2E006E240
:103A900012E08EE2C82E82E0D82E97E0592E7724CD
:103AA00073948D91E80129918E01240F352F311DDA
:103AB0002A553C4FE82FF0E0E25FFC4F90E080E0B9
:103AC000652C681A872C082E01C0880C0A94EAF726
:103AD0007901A12CE701B9907E01B820662D6A1901
:103AE0006770962E062E000C770BDB2D01C0DD0FC4
:103AF0009A94EAF77195619571096770772701C00B
:103B0000B6946A95EAF7BD2A6081962E9B2890822A
:103B1000A39468E0A612DECF019631968830910515
:103B200079F6CA16DB0609F0BCCF04E610E020E205
:103B300030E04EE053E07DCF80913103909132032D
:103B4000911103C091E089270895882369F062E00C
:103B500070E08CEA99E00E94D21B892B19F08091C9
:103B6000310308951092310380913103EBCF0E940D
:103B7000D20708950F931F9380913203882379F120
:103B80008091A6059091A7050E94E62BC29760F050
:103B90000E94CE2B9093A7058093A60560E080E05D
:103BA0000E94691C0E94B71D0E94A51C80913103D0
:103BB0008823A9F00E94DA2B0091A8051091A9058D
:103BC0002091AA053091AB05601B710B820B930B02
:103BD0006F3F7F4F8F4F9F4710F40E949C1D1F9196
:103BE0000F910895CF93DF93EC01FB01828188232D
:103BF00009F464C1C330FDE5DF07E0F5CA3F9CE589
:103C0000D90730F49E0122503C4524313105D8F5C6
:103C10000E94B01290938B0380938A03C231ECE52B
:103C2000DE0709F41FC108F06EC0C9308CE5D80763
:103C300009F4F2C008F03FC0C530ECE5DE0709F436
:103C4000DBC058F5C3308CE5D80709F4CDC008F0C7
:103C5000CFC080918A038160C230DC4509F4AEC0D8
:103C600080918A0390918B030E94BE120E942E0DB8
:103C700080E009C0C53AEDE5DE0751F238F4C136FF
:103C80009DE5D90729F2DF91CF9108959E012D5A24
:103C90003D4523303105B8F7BBCF80918A03806260
:103CA000C730FCE5DF0709F489C008F4B1C0809192
:103CB0008A03806483C0CD309CE5D90709F4BAC07B
:103CC00070F480918A038E7FCB30FCE5DF0709F426
:103CD00075C008F4A7C080918A038D7F6FC0CF3074
:103CE0009CE5D90709F4B6C008F4A8C0C031FCE5CA
:103CF000DF0709F4B3C0C131DC4509F0B1CF8091D1
:103D00008A038F7B5BC0CF3F9CE5D90709F4B4C021
:103D100098F5CA3FFCE5DF0709F472C0B8F4C43176
:103D20009CE5D90709F4B6C008F4A2C0C531DC454A
:103D300009F096CF80918A0382FB992790F921E0C0
:103D4000922790FB82F990FB83F938C0CC3F8CE539
:103D5000D80709F477C008F457C0CD3FECE5DE077B
:103D600009F474C080918B038360CE3FDC4509F079
:103D700077CF80938B0374CFC1368DE5D80709F4D4
:103D800096C068F4C130EDE5DE0709F48CC008F494
:103D900077C0C230DD4509F063CF80E085C0CD3A01
:103DA0009DE5D907E9F068F490918A03892F8E7F09
:103DB00090FF8160C53ADD4509F052CF80938A03B8
:103DC0004FCFCE3A8DE5D80789F1CF3ADD4509F0DE
:103DD00047CF90918B03892F877F93FF8860C9CF4E
:103DE00080918B038860C5CF80918A038260E6CF83
:103DF00080918A038460E2CF80918A038860DECF5D
:103E000080918B038160B5CF80918B038260B1CFAD
:103E100080918A038061D2CF0E942E0D80918A0307
:103E20008068CCCF80918A038C60C8CF80918B034F
:103E3000877F9FCF80918A038B7FC0CF80918A0339
:103E4000877FBCCF80918B038E7F93CF80918B0334
:103E50008D7F8FCF80918A038F7EB0CF80918A0330
:103E60008F7DACCF0E942E0D80918A038F77A6CFD5
:103E700080918A03837FA2CF80918B038C7F79CF3F
:103E800080918B03982F909591708E7F892B90FB5A
:103E900081F96FCF0E942E0D90918A03892F97FB95
:103EA00087F980588BCF81E00E944A13D9CE909138
:103EB0008A03892F8F7E94FF806180CF81E0E3CEDB
:103EC000B0E0A0E0E6E6FFE10C94E633E82FF0E096
:103ED000E053F64FD490282F26952695269530E06E
:103EE000F901E059F54F0491877010E0082E02C0E7
:103EF000159507950A94E2F701701127F901E05A28
:103F0000F54FE490F12C082E02C0F594E7940A9442
:103F1000E2F791E0E922FF24F901E05BF54FC4915B
:103F2000D0E002C0D595C7958A95E2F7C170DD272C
:103F30000115110519F081EE0E94530AE114F104F4
:103F400019F086EE0E94530A8D2D0E94D90AE114C1
:103F5000F10419F086EE0E94970A0115110519F077
:103F600081EE0E94970ACD2B19F08CE20E94D90AAB
:103F7000CDB7DEB7E7E00C940234EF92FF920F93D7
:103F80001F93CF93DF93EC01162F0AE088818823DB
:103F900009F454C0813009F04EC08981813099F410
:103FA0007E0122E0E20EF11C8A810E94D90AE7011B
:103FB0002196812F815050F3EFE9FFE03197F1F71F
:103FC00000C00000F7CF823041F47E0182E0E80EAD
:103FD000F11C8A810E94530AEACF833041F47E01AA
:103FE000E2E0EE0EF11C8A810E94970AE0CF843055
:103FF00011F02196DDCF2A81229690E080E0AE017B
:104000004F5F5F4F2053330B2A30310548F0019743
:1040100078F2EFE9FFE03197F1F700C00000F7CF49
:10402000089FB001099F700D1124C901860F971FC9
:104030002981EA01E4CF0E94601FBACFCDB7DEB775
:10404000E6E00C94033484E0089590E1699FB001A8
:10405000112450E0440F551F640F751F90EC899F89
:10406000600D711D1124CB01879608950F931F9346
:10407000CF93DF938430C8F46C30B8F44830A8F4A0
:104080000E9425208C010E945334C82FD0E0DC2FE1
:10409000CC27C80101960E9453349E01282BC901E8
:1040A000DF91CF911F910F91089590E080E0F8CFBC
:1040B0000F931F93CF93DF93122F032F843078F445
:1040C0006C3068F4483058F40E942520EC01602FD1
:1040D0000E946134612FCE0101960E946134DF910C
:1040E000CF911F910F910895B0E0A0E0EAE7F0E2D0
:1040F0000C94E4339CEAC92E96E0D92ED0E0C0E0BF
:104100007601B12C20C00E94810821E030E08C179C
:104110001D0641F03CF0F801EE0FFF1FEE0DFF1DF4
:1041200025913491402F6B2D8C2F0E9458200F5FCA
:104130001F4F0830110539F780E1E80EF11CB394E8
:104140008CE0B81619F010E000E0DDCF219680EC8D
:10415000C80ED11CC430D10599F6CDB7DEB7E9E061
:104160000C940034EF92FF920F931F93CF93DF9341
:10417000EC018A017C01E60EF71ECE018796CE1572
:10418000DF0529F4CDB7DEB7E6E00C940334C115A2
:1041900023E0D20740F40E945334F80180830F5F7C
:1041A0001F4F2196EACFF8011082F9CFB0E0A0E0CE
:1041B000ECEDF0E20C94E5337C016A018C01060F12
:1041C000171FEC01CE018796C017D10729F4CDB790
:1041D000DEB7E8E00C940134C11523E0D20740F4C7
:1041E000FE01EE19FF09EC0DFD1D60810E94613496
:1041F0002196E8CF462F843040F47C3030F468308C
:1042000020F4672F0E943620089590E080E0089502
:1042100080E1089589ED90E00895EF92FF920F9369
:104220001F93CF93DF93EC018A017C01E60EF71E0A
:10423000CE01895D9C4FCE15DF0529F4CDB7DEB7E1
:10424000E6E00C940334C93DD10540F40E94533498
:10425000F80180830F5F1F4F2196EACFF80110828B
:10426000F9CFB0E0A0E0E7E3F1E20C94E5337C01A4
:104270006A018C01060F171FEC01CE01895D9C4F6E
:10428000C017D10729F4CDB7DEB7E8E00C940134AC
:10429000C93DD10540F4FE01EE19FF09EC0DFD1DED
:1042A00060810E9461342196E8CFCF93DF93C7E20B
:1042B000D3E060E0CE010E9461342196C11584E014
:1042C000D807B9F7DF91CF910895A4E0B0E0EBE60D
:1042D000F1E20C94E633F82E8FE08F1548F18FEF62
:1042E00093E00E945334811123C007E213E0F110E0
:1042F00023C019821A821B821C82DD24D394780188
:104300008FEFE81AF80AC8010E94533489831A8291
:10431000882371F09FEF980F9330D8F48A83D98265
:104320000E5F1F4FC7010E9453348B83811112C04F
:104330002496E7E00C940234011584E01807C1F3D9
:10434000C8010E945334811101C0FA940F5F1F4FBE
:10435000CECF870160E0CE0101960E94BD1FCFCF76
:10436000CF93DF93EB0186319C4511F50E948C11B0
:104370009A81992399F08A7A91E009F490E09093D8
:104380003503811109C089E20E9461110E94D9118F
:1043900080E0DF91CF91089585E3F6CF80913503DA
:1043A000811104C089E20E946911F0CF85E3FBCF3F
:1043B00081E0EFCFB0E0A0E0E0EEF1E20C94DD337D
:1043C000EC01E881F981CF01815095458F3F91053E
:1043D00010F485E5F827DB0112964C90442009F48F
:1043E0005AC2EF3FF105A9F0A0F0EA32FD4521F0F5
:1043F00010923603A42D07C08091360391E08927DF
:1044000080933603A0E08A2FCDB7DEB7E0E10C94AD
:10441000F933A0913603AA2309F4E9C010923603B8
:10442000E03CF105F0F5E038F10508F0AAC0E03411
:10443000F10508F070C021E030E040E050E060E0BD
:1044400070E080E090E00E2F0E941234B0913703AC
:104450002B2BB09138033B2BB09139034B2BB091F0
:104460003A035B2BB0913B036B2BB0913C037B2B4E
:10447000B0913D038B2BB0913E039B2B20933703D0
:10448000309338034093390350933A0360933B03CE
:1044900070933C0380933D0390933E03F983E8833C
:1044A000B2CFEF3FF10509F030F621E030E040E017
:1044B00050E060E070E080E090E08F01005C110966
:1044C0000E941234B0914F032B2BB09150033B2B21
:1044D000B09151034B2BB09152035B2BB09153031E
:1044E0006B2BB09154037B2BB09155038B2BB09168
:1044F00056039B2B20934F0330935003409351035B
:104500005093520360935303709354038093550365
:1045100090935603C3CF21E030E040E050E060E0EC
:1045200070E080E090E08F01005411090E94123485
:10453000B0913F032B2BB09140033B2BB091410333
:104540004B2BB09142035B2BB09143036B2BB0918B
:1045500044037B2BB09145038B2BB09146039B2BDF
:1045600020933F0330934003409341035093420311
:1045700060934303709344038093450390934603F1
:104580008DCF21E030E040E050E060E070E080E07E
:1045900090E08F01005811090E941234B091470336
:1045A0002B2BB09148033B2BB09149034B2BB0917F
:1045B0004A035B2BB0914B036B2BB0914C037B2BCD
:1045C000B0914D038B2BB0914E039B2B209347034F
:1045D000309348034093490350934A0360934B033D
:1045E00070934C0380934D0390934E0357CFE03468
:1045F000F10508F067C07090370380903803909001
:104600003903D0913A03C0913B03B0913C035090E1
:104610003D0360903E0321E030E040E050E060E088
:1046200070E080E090E00E2F0E94123459016A0180
:104630007B018C0127213B2D382149215D2D5D23F4
:104640006C237F2D7B238521912F96210E942B3473
:1046500009F0D0CEE03CF10508F08EC0E038F1055D
:1046600008F0EBC0E034F10508F0B9C021E030E01B
:1046700040E050E060E070E080E090E00E2F0E94AB
:1046800012342095309540955095609570958095A1
:1046900090952721382149215D236C237B23852197
:1046A0009621209337033093380340933903509376
:1046B0003A0360933B0370933C0380933D039093D4
:1046C0003E03A1CEE038F105E0F470903F03809006
:1046D000400390904103D0914203C0914303B091B5
:1046E0004403509045036090460321E030E040E0F1
:1046F00050E060E070E080E090E08F01005411092C
:1047000093CFE03CF105E0F47090470380904803BC
:1047100090904903D0914A03C0914B03B0914C0350
:1047200050904D0360904E0321E030E040E050E0B7
:1047300060E070E080E090E08F010058110974CFD4
:1047400070904F038090500390905103D09152038A
:10475000C0915303B0915403509055036090560399
:1047600021E030E040E050E060E070E080E090E088
:104770008F01005C110958CFEF3FF10511F008F0EF
:1047800075CF8F01005C110921E030E040E050E07E
:1047900060E070E080E090E00E9412342095309557
:1047A000409550956095709580959095272138217A
:1047B00049215D236C237B238521962120934F0380
:1047C000309350034093510350935203609353032B
:1047D00070935403809355039093560314CE8F0126
:1047E0000054110921E030E040E050E060E070E06A
:1047F00080E090E00E9412342095309540955095CD
:1048000060957095809590952721382149215D23E9
:104810006C237B238521962120933F033093400313
:1048200040934103509342036093430370934403C6
:104830008093450390934603E6CD8F0100581109FC
:1048400021E030E040E050E060E070E080E090E0A7
:104850000E94123420953095409550956095709542
:10486000809590952721382149215D236C237B2356
:1048700085219621209347033093480340934903B1
:1048800050934A0360934B0370934C0380934D0302
:1048900090934E03B8CDA1E0EF3FF10509F098F5F4
:1048A000E034F10590F58090370390903803D09173
:1048B0003903C0913A03B0913B03A0913C0360904F
:1048C0003D0370903E0321E030E040E050E060E0C6
:1048D00070E080E090E00E2F0E94123459016A01CE
:1048E0007B018C0128213B2D39214D235D2D5C233B
:1048F0006B237F2D7A23A1E08621912F97210E949F
:104900002B3409F4A0E0A1707ECDE038F105E0F48D
:1049100080903F0390904003D0914103C0914203A7
:10492000B0914303A0914403609045037090460307
:104930008F010054110921E030E040E050E060E0D8
:1049400070E080E090E0C8CFE03CF105A0F48090FA
:10495000470390904803D0914903C0914A03B09116
:104960004B03A0914C0360904D0370904E038F0158
:1049700000581109E0CF80904F0390905003D091E0
:104980005103C0915203B0915303A091540360901E
:104990005503709056038F01005C1109CCCFFC01C8
:1049A0008481862351F492819923B9F0692380850B
:1049B00083FF05C081E061110FC080E00895892F59
:1049C0008F7092959F70982B862F8F7062956F7065
:1049D000682B81E09613F1CF089581E0FDCFCF934E
:1049E000DF93EC0160916103709162038091630336
:1049F000909164030E94F52B643F714081059105FD
:104A000018F58091610390916203A0916303B091C6
:104A1000640380935D0390935E03A0935F03B09360
:104A2000600384EF91E0A0E0B0E08093590390939D
:104A30005A03A0935B03B0935C03D0935803C093D5
:104A40005703DF91CF9108950E94DA2B60935D03A5
:104A500070935E0380935F039093600382E390E022
:104A6000A0E0B0E0E2CFFF920F931F93CF93DF93CC
:104A7000F82E00916803109169030115110509F4DE
:104A80004DC010925803109257030E94B8110E9413
:104A9000B2110091680310916903D8011696CD9167
:104AA000DC919E013A9521153F4108F4D07ED1E07A
:104AB000C11101C0D0E0D8011996ED91FC911A976F
:104AC000309731F01B966D917C9180E00995D82349
:104AD000DD2339F08CEF8C0F813A30F58C2F0E945A
:104AE0006911FF2099F0E0916803F09169038085D6
:104AF00084FD0CC080916703882341F080819181FF
:104B00009C0121503109203B3D45A0F00E94D91164
:104B1000109269031092680310926703C801CDB721
:104B2000DEB7E5E00C9404340E94D9118C2F0E946A
:104B3000970AD7CF0E94EF24E9CF10923D0180E081
:104B40000E943325089580913D01882319F00E9429
:104B50009D25089581E080933D0108950F931F9353
:104B60008091570390915803892B89F160915D03DF
:104B700070915E0380915F03909160030E94F52B1A
:104B80000091590310915A0320915B0330915C030B
:104B90006017710782079307D0F0809157039091B7
:104BA00058030E94BE0810925803109257031092A7
:104BB0005D0310925E0310925F03109260031092E7
:104BC000590310925A0310925B0310925C031F91D9
:104BD0000F910895A4E0B0E0E0EFF5E20C94DB3330
:104BE0008C017A836983DB0112965C905520B1F0C9
:104BF0008F35BDE59B0759F08036EDE59E0759F0EE
:104C00008E359D4559F40E94A325312C0DC081E0BD
:104C100080933D01FACF0E949D25F7CF30903D0152
:104C2000311007C033243394832D2496E2E10C9491
:104C3000F733680120EEC21AD1080E948C11F82EB9
:104C40000E947811482E0E94BB11482A4F2838E054
:104C5000C316D10408F094C098012770332781E06F
:104C600090E001C0880F2A95EAF7552009F485C025
:104C7000482AA981BA818D919C910E94590E8090F9
:104C80000101909002018114910409F4E1C021E036
:104C900030E0390102C0660C771C8A95E2F7E0919A
:104CA0006803F0916903FA83E983A0906503B090EB
:104CB0006603212CE22DF0E0EE0FFF1FE80DF91D39
:104CC000208131813C832B832115310509F4C0C03B
:104CD000411005C0D90112968C9181118BC0EB81D6
:104CE000FC81838190E086219721892B09F482C081
:104CF0008085982F977009F487E0F8E0CF16D104EB
:104D000008F058C0552009F451C086958170882359
:104D100009F470C0AB81BC81ED90FC900E151F05AD
:104D200019F4552009F466C0EB81FC8129813A8190
:104D3000E217F30709F45EC00584F685E02D30978D
:104D400021F08081882309F455C0642D8B819C81DA
:104D50000E94CF24882309F44DC00E151F0509F0C9
:104D60008BC00115110509F48CC051108CC0EA14D8
:104D7000FB0409F03FC0512C86C08095482279CFB2
:104D8000552009F44EC010936603009365030E94FA
:104D9000DA2B6093610370936203809363039093B3
:104DA0006403109258031092570363CF82FB882745
:104DB00080F9ADCF5520F1F08170A9CF0E94970AFC
:104DC00083C00497813A910548F4802F0E946111B5
:104DD000552009F427CF0E94D91117CF0E94D9116D
:104DE0008FE39CE90197F1F700C00000802F0E943B
:104DF000530AEECF23945ECFFC012081318120172E
:104E0000310731F4511007C01092670380E031C0C0
:104E1000552009F407CFDC0118968C9185FD02CF4F
:104E2000F5CF80916503909166038017910781F417
:104E30001092660310926503109261031092620350
:104E40001092630310926403109258031092570358
:104E50008091680390916903009709F4E3CEA8E07C
:104E6000CA16D10448F6642D0E94CF248111DACEEF
:104E700081E00E943325D8CEE114F10409F077CF08
:104E8000512CF12CE12C80E00E943325EB81FC8138
:104E9000F0936903E093680381E080936703858161
:104EA0000E94B511511010C0E114F10469F0AB81FA
:104EB000BC818D919C919C0124503109213A31058E
:104EC00008F07CCF0E946911EB81FC81068117817B
:104ED000C8019A9581159F4108F4107EFF24F39430
:104EE000C8010197803B9D4508F0F12CAB81BC8146
:104EF0001996ED91FC911A97309731F01B966D91B0
:104F00007C9181E00995F822FF2081F0EB81FC8102
:104F1000868197810E9483080E94AF11C801F8E042
:104F2000CF16D10408F04DCF0E94EF240E94D91172
:104F30004FCF0F931F93CF93DF93C42FD22FFC013A
:104F400082818823C9F040936C030E94CE2B9093FA
:104F50006B0380936A0380E28C0F883040F4C77043
:104F600081E001C0880FCA95EAF70E94E20ADF914A
:104F7000CF911F910F91089510916C03141332C0BB
:104F800080916A0390916B030E94E62B883C910507
:104F900048F5C0E2CD0F1D17B9F080E2810F8830CF
:104FA00040F4177081E001C0880F1A95EAF70E945B
:104FB000E90AC83048F481E09D2F977001C0880F3E
:104FC0009A95EAF70E94E20A802F0E94D90AC83017
:104FD00070F6D77081E001C0880FDA95EAF70E9479
:104FE000E90AC5CF80E28C0F883008F6C77081E0EF
:104FF00001C0880FCA95EAF7F2CF0F939C01CB014D
:10500000233F4CE5340759F1A8F4283DFCE53F0760
:1050100001F1293D4CE53407D1F1273D3C4591F4A0
:1050200006E221EE41EE67ED7CE50E94992780E0E3
:105030000F910895253FFCE53F07E9F0B0F0263FCA
:105040003C45F9F0FC018281882339F110926C0310
:10505000EFCF07E225EE45EE68ED7CE5E6CF06E210
:1050600021EE40EE63EF7CE5E0CF07E225EE44EE73
:1050700064EF7CE5DACF06E221EE42EE65EF7CE5F7
:10508000D4CF07E225EE46EE66EF7CE5CECF08E210
:1050900021E045EE69ED7CE5C8CF81E0C9CF1092F3
:1050A000B90088E48093B8000895B0E0A0E0EBE593
:1050B000F8E20C94E233B82EEB010E94CE2B6C0187
:1050C000EE24E394F12CC431D10560F025E0E22E0A
:1050D000F12CCF3FDC0731F0CE0164E170E00E949B
:1050E000BA337B0184EAA82E94E8992E1092BC0072
:1050F000A092BC000E94CE2B8C018091BC0087FF47
:105100000DC08091B900887F8830F9F08091B90096
:10511000887F8031D1F00FEF1FEF08C0C8010E94D7
:10512000E62BE816F90648F70EEF1FEFCF3FDC0736
:10513000E9F2C6010E94E62BC817D907B8F6C801E4
:10514000CDB7DEB7EBE00C94FE33B092BB0090928B
:10515000BC000E94CE2B8C018091BC0087FF0AC04E
:105160008091B900887F883111F08034A1F610E079
:1051700000E0E5CFC8010E94E62BE816F90660F7CB
:10518000D3CF0F931F93CF93DF93EB018093BB009B
:1051900084E88093BC000E94CE2B8C018091BC00DF
:1051A00087FF11C02091B900287F81E090E028326C
:1051B00011F490E080E0919581959109DF91CF9174
:1051C0001F910F910895CF3FDC0741F3C8010E9462
:1051D000E62BC817D90710F78EEF9FEFEFCF0F938D
:1051E0001F93CF93DF93EC0184EC8093BC000E946B
:1051F000CE2B8C018091BC0087FF08C08091BB0042
:1052000090E0DF91CF911F910F910895CF3FDC0780
:1052100089F3C8010E94E62BC817D90758F78EEF0B
:105220009FEFEFCF0F931F93CF93DF93EC0184E8B1
:105230008093BC000E94CE2B8C018091BC0087FF24
:1052400008C08091BB0090E0DF91CF911F910F913A
:105250000895CF3FDC0789F3C8010E94E62BC817E9
:10526000D90758F78EEF9FEFEFCFB0E0A0E0EBE368
:10527000F9E20C94E5336B018A017901B9010E94CE
:105280005528E6010C0D1D1DC017D10711F097FF21
:1052900008C024E92093BC00CDB7DEB7E8E00C9449
:1052A0000134B70189910E94C128EECFB0E0A0E09F
:1052B000ECE5F9E20C94E533C62F6A017901B801F7
:1052C0000E94552897FD0CC0B8018C2F0E94C12860
:1052D000E601EC0CFD1CCE15DF0511F097FF08C0B0
:1052E00024E92093BC00CDB7DEB7E8E00C9401348C
:1052F000B80189910E94C128EECFB0E0A0E0E3E8B8
:10530000F9E20C94E533F82EE62EEA016901B801C2
:105310000E94552897FD15C0B8018E2D0E94C12806
:1053200097FD0FC0B8018F2D81600E945528F12C88
:10533000E12C21E0C21AD108EC14FD04E0F497FF3F
:105340000DC024E92093BC001816190614F490E04F
:1053500080E0CDB7DEB7E8E00C940134C8010E94CC
:10536000EF2897FD04C0FE01EE0DFF1D80832FEF97
:10537000E21AF20AE1CF97FDE4CFC8010E94122998
:1053800097FDDFCFCC0DDD1D8883DBCF84E98093D3
:10539000BC0008958093BA0085EC8093BC0008950A
:1053A0001F920F920FB60F9211242F933F934F939A
:1053B0005F936F937F938F939F93AF93BF93CF939D
:1053C000DF93EF93FF938091B900887F8038F9F0E5
:1053D00038F4882309F48EC08036A1F081E035C00E
:1053E000883A11F0883BD1F7E0916E03F0E0E25586
:1053F000FA4F80818093BB0080916E038F5F809312
:105400006E03ECCF10926D0310926F03E7CF809183
:105410006D03811139C08091BB0080936E03809130
:105420006E038C3078F110926E0380E091E09093DF
:105430006D0340916E0320911701309118014217BE
:10544000130609F090E090936F039091BC00829551
:10545000880F880F807C892B85688093BC00FF9122
:10546000EF91DF91CF91BF91AF919F918F917F91FC
:105470006F915F914F913F912F910F900FBE0F90C1
:105480001F90189581E0D2CFE0916E03F0E08091FB
:10549000BB00E255FA4F808380916E038F5F80934B
:1054A0006E0380916F03882309F498CFC091240282
:1054B000D0912502A88188E0A802D0011124AA5E1B
:1054C000BE4F1696ED91FC911797309709F486CF51
:1054D00014962D913C9115972C0F3D1F11966D91AF
:1054E0007C9112976C0F7D1F13964C9113978C91A2
:1054F000099574CF1092BC0071CF90933F028093B6
:105500003E020895909376038093750308950E9458
:105510001318811103C0809170030895E091750301
:10552000F0917603309729F00190F081E02D0995F4
:10553000089580E008950E94872A0895E0917503F8
:10554000F0917603309721F00280F381E02D0995E8
:10555000089520917303309174032817390771F06F
:105560009093740380937303E0917503F091760335
:10557000309721F00680F781E02D0995089520915C
:105580007103309172032817390771F090937203F9
:1055900080937103E0917503F0917603309721F0C9
:1055A0000084F185E02D099508959C012E5F3F4F01
:1055B000AC01485F5F4F80E02417350709F4089578
:1055C000F90191919F019923B9F38F5FF5CF66237C
:1055D00049F0FC01329608962191261729F0E81728
:1055E000F907D1F780E0089581E008959C01FC015E
:1055F00032969FEF80E04191461751F09F3F19F49A
:10560000411101C0982F8F5F8630A9F79F3F09F4A1
:105610000895290F311D97FD3A95F9016283089588
:10562000FC01329608962191261303C0DF011197E1
:105630001C92E817F907B9F708950E94F62A089511
:105640000E94102B0895029626E0FC0111922A95E3
:10565000E9F7089508950E942A2B0895811106C044
:1056600081E0809377030E942B2B089582E0F9CF8D
:1056700083E0809377030E942B2B08950E942E2BAA
:10568000089581E0809377030E942B2B08950E9458
:10569000412B089508950E94E607089508950895FE
:1056A0000E944A2B0895CF930E944E2B0E9493177D
:1056B0000E944F2BC0E08C2F0E946F16811105C0F5
:1056C000CF5FCC30C1F7CF91089581E0FCCF85B793
:1056D000806885BF85B7806885BF08951F921FB613
:1056E0001F9211248F939F93AF93BF938091780360
:1056F000811113C08091BA059091BB05A091BC05A2
:10570000B091BD054196A11DB11D8093BA0590933E
:10571000BB05A093BC05B093BD05BF91AF919F9110
:105720008F911F901FBE1F9018958091C2058430E5
:1057300031F10E94D9091092780388E190E020E4C9
:105740000FB6F894A895809360000FBE2093600078
:1057500083B7817F846083BF83B7816083BF789480
:10576000889583B78E7F83BF0FB6F894A8958091F4
:105770006000886180936000109260000FBE089501
:105780000E942E0D0E94E009089582E084BD93E0FE
:1057900095BD9AEF97BD80936E0008952FB7F8944A
:1057A0008091BA059091BB05A091BC05B091BD0553
:1057B0002FBF08952FB7F8946091BA057091BB057B
:1057C0008091BC059091BD052FBF08959C014FB7F6
:1057D000F8948091BA059091BB05A091BC05B09159
:1057E000BD054FBF821B930B0895CF92DF92EF92BE
:1057F000FF922FB7F894C090BA05D090BB05E09007
:10580000BC05F090BD052FBFA7019601261B370BE5
:10581000480B590BCA01B901FF90EF90DF90CF9070
:10582000089578941F921FB61F9211248F939F930F
:10583000AF93BF938091BA059091BB05A091BC0531
:10584000B091BD050196A11DB11D8093BA0590933D
:10585000BB05A093BC05B093BD05BF91AF919F91CF
:105860008F911F901FBE1F90189587E797E7909321
:1058700001088093000888E19AE00FB6F894A89593
:10588000809360000FBE90936000FFCF88E19AE0A4
:105890000FB6F894A895809360000FBE90936000B7
:1058A000FFCF8091840308950895CF93DF93EC0197
:1058B00081E08093E9008FEF9091E800815095FDA1
:1058C00006C095ED9A95F1F700008111F5CF809112
:1058D000E80085FF14C050E040E068E070E0CE01D1
:1058E0000E94D22E8091E8008E778093E80088E0B5
:1058F000FE01ACE7B3E001900D928A95E1F7DF91EC
:10590000CF9108958093790370937B0360937A031A
:105910008091C2058430F9F48093E9008FEF909173
:10592000E800815095FD06C095ED9A95F1F70000CD
:105930008111F5CF8091E80085FF0DC050E040E077
:1059400063E070E089E793E00E94D22E8091E80046
:105950008E778093E8000895BC0184E00E94822C39
:105960000895BC0183E00E94822C08950895CF938E
:10597000FC01603221F58091C205843001F5C091AF
:10598000E900CF702091EC00922F917020FD90E8FB
:10599000C92B82E08093E9008091E80080FF0CC071
:1059A00050E040E060E270E0CF010E94D22E809192
:1059B000E8008E778093E800CF70C093E900CF9124
:1059C00008958091C105811109C00E94B1300E94E3
:1059D0000E318091E20084608093E200089510927D
:1059E000C10508950E94412B08956091BE0581E094
:1059F000611101C080E00E94382B08959091C2058A
:105A000081E0943009F080E06091BE050E943E2B59
:105A1000089542E061EC81E00E942D3042E261ECA9
:105A200084E00E942D3042E261EC82E00E942D3041
:105A300042E260EC83E00E942D309091C20581E04B
:105A4000943009F080E06091BE050E942E2B0895ED
:105A50008091C405833009F463C030F48130E1F1F2
:105A6000823009F4A0C008958A3009F48CC08B30CC
:105A700009F471C0893009F052C08091C3058132A8
:105A800009F04DC08091C7059091C805009719F0A5
:105A9000029709F044C08091E800877F8093E80076
:105AA0008091E80082FF37C09091F3008091F2006E
:105AB000029731F48091F100813011F0863021F4A9
:105AC0008091F100809384038091E8008B7780932C
:105AD000E8000E94613023C08091C305813AF9F447
