:100000000C94E5050C9402060C9402060C9402066E
:100010000C9402060C9402060C9402060C94020640
:100020000C9402060C9402060C94DB2D0C94AF2E5B
:100030000C941C280C9402060C9402060C940206E4
:100040000C9402060C9402060C9402060C94020610
:100050000C9402060C94BF280C9402060C94020621
:100060000C9402060C9402060C9402060C940206F0
:100070000C9402060C9402060C9402060C940206E0
:100080000C9402060C9402060C9402060C940206D0
:100090000C947E260C9402060C9402060C94020624
:1000A0000C9402060C9402060C9402060000000058
:1000B000000000000000000000000000000000FE42
:1000C000FE0000000000001919000000000E0E00E4
:1000D000000E0E00000000000000000020FCFC20CC
:1000E000FCFC2000021F1F021F1F0200003078CE00
:1000F0008E18100000040C38390F0600383800C084
:10010000F03C0C00303C0F03001C1C000098FCE489
:10011000BC1880000F1F10110F1F11000000101ECF
:100120000E00000000000000000000000000F0FCD5
:100130000E0200000000071F382000000000020E21
:10014000FCF00000000020381F07000080B0F0C065
:10015000C0F0B0800006070101070600008080F0B3
:10016000F080800000000007070000000000000091
:10017000000000000040643C1C0000000080808003
:1001800080808000000000000000000000000000EF
:10019000000000000000001C1C000000000000C067
:1001A000F03C0F03303C0F0300000000F0F80C841B
:1001B0004CF8F000070F1910180F0700001018FC7A
:1001C000FC0000000010101F1F10100000181C047D
:1001D00084FC7800001C1E131110100000181C84F1
:1001E00084FC7800000C1C10101F0F00C0E03018B9
:1001F000FCFC0000010101011F1F0100007C7C4488
:1002000044C48400000C1C10101F0F0000F0F84CB8
:1002100044C48000000F1F10101F0F0000040404CE
:10022000C4FC3C000000001F1F0000000078FCC45C
:1002300084FC7800000F1F10111F0F000078FC8451
:1002400084FCF80000001010180F070000000038B0
:10025000380000000000001C1C00000000000038F6
:10026000380000000040643C1C0000000080C060BA
:100270003018080000000103060C080000202020B0
:1002800020202000000202020202020000081830B2
:1002900060C0800000080C0603010000000C0EC2C4
:1002A000E23E1C000000001919000000F8FC04C424
:1002B000C4FCF8000F1F10131313010000F0F88C9A
:1002C0008CF8F000001F1F00001F1F0000FCFC84C2
:1002D000C47C3800001F1F10111F0E0000F8FC0422
:1002E000041C1800000F1F10101C0C0000FCFC0464
:1002F0000CF8F000001F1F10180F070000FCFC8412
:1003000084840400001F1F101010100000FCFC4427
:1003100044440400001F1F000000000000F8FC041B
:10032000849C9800000F1F10101F1F0000FCFC8011
:1003300080FCFC00001F1F00001F1F00000404FCC5
:10034000FC0404000010101F1F101000000000002B
:1003500000FCFC00000C1C10101F0F00FCFC80C0F7
:10036000703C0C001F1F0001071E180000FCFC0061
:1003700000000000001F1F1010101000FCFC38E0EF
:1003800038FCFC001F1F0000001F1F00FCFCF0C019
:1003900080FCFC001F1F0001071F1F0000F8FC0469
:1003A00004FCF800000F1F10101F0F0000FCFC845D
:1003B00084FC7800001F1F000000000000F8FC040F
:1003C00004FCF800000F1F10307F4F0000FCFC847D
:1003D00084FC7800001F1F00011F1E0000387CC431
:1003E000841C1800000C1C10111F0E00000404FCDB
:1003F000FC0404000000001F1F00000000FCFC00C3
:1004000000FCFC00000F1F10101F0F0000FCFC0080
:1004100000FCFC000001071E1E070100FCFC008020
:1004200000FCFC001F1F0E030E1F1F000C1C30E001
:10043000E0301C0C181C060303061C180C3C70C092
:10044000C0703C0C0000001F1F000000000404846A
:10045000E47C1C00001C1F13101010000000FEFEA6
:100460000202000000003F3F20200000030F3CF08C
:10047000C000000000000000030F3C30000002023A
:10048000FEFE0000000020203F3F000060781C06B8
:100490001C78600000000000000000000000000068
:1004A0000000000080808080808080800000000646
:1004B0000E18100000000000000000000000404086
:1004C00040C08000000E1F11111F1F0000FCFC40E7
:1004D00040C08000001F1F10101F0F000080C04090
:1004E00040C08000000F1F10101808000080C0409E
:1004F00040FCFC00000F1F10101F1F000080C040B8
:1005000040C08000000F1F12121303000040F8FCCF
:100510004444440000001F1F000000000080C04051
:1005200040C0C000008F9F9090FF7F0000FCFC4007
:1005300040C08000001F1F00001F1F00004040CC73
:10054000CC0000000000001F1F1010000000000081
:10055000CCCC000000808080FF7F000000FCFC000D
:1005600000C0C000001F1F02071D1800000404FC8B
:10057000FC0000000000001F1F101000C0C08080A1
:10058000C0C080001F1F000F001F1F0000C0C04020
:1005900040C08000001F1F00001F1F000080C040DF
:1005A00040C08000000F1F10101F0F0000C0C0408F
:1005B00040C0800000FFFF10101F0F000080C040EF
:1005C00040C0C000000F1F1010FFFF0000C0C0405F
:1005D00040C08000001F1F00000101000080C040DB
:1005E0004040400000111312121E0C000040F8F8A9
:1005F0004040400000000F1F1010100000C0C0005D
:1006000000C0C000000F1F10101F1F0000C0C0005E
:1006100000C0C00000070F18180F0700C0C000007E
:1006200000C0C000071F180F181F0700C0C000003F
:1006300000C0C000181D0702071D180000C0C00040
:1006400000C0C000000F9F9090FF7F00004040401E
:1006500040C0C00000181C1613111000808080FCE0
:100660007E0202000000001F3F202000000000FF6B
:10067000FF0000000000003F3F00000002027EFC7F
:100680008080800020203F1F000000000C06020E2A
:10069000080C0600000000000000000006E916102B
:1006A00010106000001F20202020180000003A00D9
:1006B0003B003C003D003E003F00000029001E00C2
:1006C0001F00200021002200460000003500140019
:1006D0001A000800150017002A0000002B00040073
:1006E0001600070009000A0001510251E1001D0037
:1006F0001B000600190005004C000100E000E200AC
:10070000E300000001512C0028000100000045001A
:100710004400430042004100400000002D0027003B
:100720002600250024002300480000002A001300B2
:1007300012000C0018001C002A00000028003300E2
:100740000F000E000D000B0001510251E5003800B2
:1007500037003600100011004C000100E4004F008B
:100760005100520050002C00280001000000010040
:100770000100010001000100010000000100010072
:100780000100010001000100010000000100010062
:100790000100010001000100010000000100010052
:1007A0000100010001000100010001000100010041
:1007B0000100010001000100010001000100010031
:1007C0000100010001000100010001000000010022
:1007D0000100010001000100010000000100010012
:1007E0000100010001000100010000000100010002
:1007F00001000100010001000100000001000100F2
:1008000001000100010001000100010001000100E0
:1008100001000100010001000100010001000100D0
:1008200001000100010001000100010000000100C1
:1008300001000100010001000100000001000100B1
:1008400001000100010001000100000001000100A1
:100850000100010001000100010000000100010091
:100860000100010001000100010001000100010080
:100870000100010001000100010001000100010070
:100880000100010001000100010001000000010061
:100890000100010001000100010000000100010051
:1008A0000100010001000100010000000100010041
:1008B0000100010001000100010000000100010031
:1008C0000100010001000100010001000100010020
:1008D0000100010001000100010001000100010010
:1008E0000100010001000100010001000000010001
:1008F00001000100010001000100000001000100F1
:1009000001000100010001000100000001000100E0
:1009100001000100010001000100000001000100D0
:1009200001000100010001000100010001000100BF
:1009300001000100010001000100010001000100AF
:1009400001000100010001000100010000000100A0
:100950000100010001000100010000000100010090
:100960000100010001000100010000000100010080
:100970000100010001000100010000000100010070
:10098000010001000100010001000100010001005F
:10099000010001000100010001000100010001004F
:1009A00001000100010001000100010000AE00AFE4
:1009B00000DA0281FFD9F1DB20A4A62EAF00A0C08F
:1009C00000A1C800AED580A81FD300408D14200020
:1009D00000000000000000002A2B2800000000009A
:1009E00000000000000000000000002900000000DE
:1009F0002C1E3420212224342627252E362D37384C
:100A0000271E1F202122232425263333362E373854
:100A10001F0405060708090A0B0C0D0E0F10111212
:100A2000131415161718191A1B1C1D2F3130232DDE
:100A3000350405060708090A0B0C0D0E0F101112DC
:100A4000131415161718191A1B1C1D2F3130354C8D
:100A50000000000000000000000000000000000096
:100A60000000000000000000000000000000000086
:100A7000000000007E0F00D4FFFFFFC700000078D9
:100A800024034500720067006F006D00610078006C
:100A9000200054004E004B002000520065006D0005
:100AA0006900780000001C03540061006E006100C2
:100AB0006B006100200059007500730075006B0029
:100AC000650000000403090409025B00030100A0A3
:100AD000FA090400000103010100092111010001CC
:100AE00022400007058103080001090401000203F8
:100AF00000000009211101000122220007058203E4
:100B0000200001070503032000010904020001037E
:100B100000000009211101000122320007058403B1
:100B200020000112010002000000086E74020000A3
:100B300001010200010660FF0961A10109621500BF
:100B400026FF009520750881020963150026FF0025
:100B5000952075089102C005010980A1018503193E
:100B6000012AB700150126B700950175108100C054
:100B7000050C0901A101850419012AA0021501260D
:100B8000A002950175108100C005010906A10105AB
:100B90000719E029E71500250195087501810295DF
:100BA00001750881010507190029FF150026FF00BE
:100BB0009506750881000508190129059505750137
:100BC0009102950175039101C00011241FBECFEF62
:100BD000DAE0DEBFCDBF11E0A0E0B1E0ECEDF2E67F
:100BE00002C005900D92A23CB107D9F725E0A2EC16
:100BF000B1E001C01D92A933B207E1F70E94D519F7
:100C00000C9443310C9400000E948B17882319F038
:100C100081E0809300010895E4ECF1E080E2DF01DF
:100C20001D928A95E9F70895CF93C82F0E94040674
:100C30008C2FCF9108950E94040681E008950895B5
:100C4000B0E0A0E0E6E2F6E00C948F30C62ED12CA6
:100C5000F601A4E0EE0FFF1FAA95E1F7E82EF12CB4
:100C6000EE0DFF1DE032F1050CF05EC0EC53FE4FBF
:100C70008081841709F458C04083CC0CDD1C63E0EC
:100C8000EE0CFF1C6A95E1F7242F2052330BE9018B
:100C900074E0CC0FDD1F7A95E1F7C455DF4FB12C1E
:100CA000A12C88248394912C2091AF02C5018C0D36
:100CB0009D1D289F8001299F100D11240E0D1F1DC1
:100CC00048E050E0BE01C8018C5E9C4F0E94E230BB
:100CD000C80125E0969587952A95E1F7940102C011
:100CE000220F331F8A95E2F7C9012091B402309197
:100CF000B502822B932B095F1F4F35E016950795A0
:100D00003A95E1F79401002E02C0220F331F0A9496
:100D1000E2F7822B932B9093B5028093B40228962E
:100D200031E0A316B10429F4CDB7DEB7ECE00C94A2
:100D3000AB30AA24A394B12CB7CF262F30E0F90111
:100D4000B4E0EE0FFF1FBA95E1F790E0E80FF91F4E
:100D5000B09754F57091AF02E3E0880F991FEA95C0
:100D6000E1F7679FD0011124AA0FBB1FA80FB91F7D
:100D7000AC5EBC4F68E0FA0101900D926A95E1F714
:100D8000220F331F2F5F3F4F729FD001739FB00D13
:100D90001124A80FB91FAC5EBC4FFA01389688E049
:100DA00001900D928A95E1F708950F931F93CF93C9
:100DB000DF938091AF024091B4025091B502282F89
:100DC00030E0220F331FD901A058BF4FE1E0F0E01F
:100DD000B901695F7F4FD5E076956795DA95E1F7C0
:100DE0008F0102C0000F111F6A95E2F7B801E901F7
:100DF00015E0D695C7951A95E1F78F0102C0000F4F
:100E0000111FCA95E2F7E801602B7D2B462B572B6B
:100E1000285F3F4FA217B307D9F6A3E08A9FC0010E
:100E20001124FC01E058FF4F61E070E09C01295F54
:100E30003F4FA5E036952795AA95E1F7EB0102C053
:100E4000CC0FDD1F2A95E2F79E01DC01C5E0B695C7
:100E5000A795CA95E1F78B0102C0000F111FAA9553
:100E6000E2F7D801202B3B2B422B532B08968E17F1
:100E70009F07E1F65093B5024093B402DF91CF9102
:100E80001F910F9108951F93CF93DF930E944927DD
:100E9000182F0E942A11D82F60E0809110020E9422
:100EA000450DC1E0811119C061E0809110020E94DE
:100EB000450DC2E0811111C062E0809110020E94D4
:100EC000450DC3E0811109C063E0809110020E94CA
:100ED000450DC4E0811101C0C0E04BE560E080E059
:100EE0000E94200640E210FD4EE460E081E00E9496
:100EF000200640E211FD43E460E082E00E9420060B
:100F000040E212FD43E560E083E00E9420064DE5EB
:100F100060E084E00E94200640E260E085E00E94FC
:100F200020064BE560E086E00E9420068D2F82724D
:100F300040E209F043E560E087E00E9420068D2F43
:100F4000817140E209F043E460E088E00E942006FD
:100F5000D47440E209F041E460E089E00E94200698
:100F60008091E40140E2811147E560E08AE00E945F
:100F700020064DE560E08BE00E94200640E260E044
:100F80008CE00E9420064CE460E08DE00E94200688
:100F900040E34C0F60E08EE00E942006DF91CF918D
:100FA0001F91089580910001882371F08091E501DF
:100FB000882321F00E94D5061092E5010E94430784
:100FC0000E94F81B1092000181E008950E94141DF8
:100FD0000895A0E2B0E0EFEEF7E00C949930FE0146
:100FE00033969EE1DF011D929A95E9F799E0998386
:100FF0008A8360E2CE0101960E946529A096E2E014
:101000000C94B5309C01215C31092B30310550F432
:10101000FB012281222321F0815C0E94E90720E06C
:10102000822F0895833E910571F038F4803E91053A
:1010300010F00E94040621E0F3CF873E9105C8F32B
:10104000873E9105C1F7FB0182818093E401F1CFD6
:10105000EF92FF920F931F93CF93DF93EC01162F24
:101060008881833041F589818530E1F4862F825073
:10107000990B7C01229610E000E04991442381F015
:101080000E151F050CF040E261E0802F0E94200643
:101090000F5F1F4F0031110581F70E9404060BC03E
:1010A0007801F1CF863061F4AE014D5F5F4F61E0B2
:1010B0008A810E949D06CDB7DEB7E6E00C94B13080
:1010C000873019F40E94D506E8CF8830A1F7E09068
:1010D000B402F090B50200E040E261E0802F0E948F
:1010E00020060F5F0031C1F7133018F08A8181119B
:1010F000E2CF81E08093E501F092B502E092B40284
:10110000DACF84E0089581E008950E9402080895EE
:1011100008950E9488080895A5E0B0E0E2E9F8E0AB
:101120000C94983049835A833091EB0189819A81DC
:10113000311119C0662399F0222389F00E940C0E08
:10114000182F682F89819A810E94E90D69817A811F
:10115000812F0E9472202596E3E00C94B4300E9407
:10116000FA0D182FF3CF0E940C0E69817A81F1CF0E
:10117000FC01262F408151816281738184810E940C
:101180008C08089581E00895CF93DF93EC0160E02F
:101190000E94B808BE010E948908DF91CF9108958E
:1011A000E1E0F0E0DF0102C0AA0FBB1F6A95E2F7A1
:1011B000BD01DF0102C0AA0FBB1F4A95E2F76A2BEF
:1011C00001C0EE0F2A95EAF7962F9823961302C0D6
:1011D0008E2B0895E0958E230895242F462F682F97
:1011E000809110020E94D0080E943A0D08950E943A
:1011F000E01508950E94E415089508950E94CF0C0B
:101200000E94FD082FEF84E39CE021508040904035
:10121000E1F700C0000008950E94FE080E94E32844
:1012200008950E94FE080E94F4280895A2E0B0E00C
:10123000ECE1F9E00C9497308C0161E00E94B80871
:101240009A838983B801CE0101960E9452218111AF
:1012500005C080E02296E4E00C94B330B8018981A7
:101260009A810E94471A8823A1F3B80189819A8143
:101270000E948508882369F3B80189819A810E94B8
:10128000AB24882331F3B80189819A810E946A1DB9
:101290008823F9F2B80189819A810E942821882344
:1012A000C1F2F8018281882371F089819A818A359F
:1012B000FDE59F0701F158F48115ECE59E0791F0DB
:1012C0008E3D9C4591F0C8010E948308C3CF8C35A8
:1012D0002DE5920769F090F0873A9D45A1F70E94AD
:1012E0001109B7CF0E940C09B4CF0E94C512F7CFE5
:1012F0000E94FF11E8CF0E940912E5CF0E940D1253
:10130000E2CF0E94F9270E949E090E94141D0895B1
:101310000E94A2090E94FE27089508950E948D0947
:1013200008950E941B0608950895CF93C82F0E9428
:101330008E098C2F0E949109CF91089580E00E9420
:10134000950908950E9435270E9495090895CF9325
:101350000E943527C82F8091E6018C1779F0C09341
:10136000E6010E9488286093E7017093E80180936A
:10137000E9019093EA018C2F0E949509CF9108957D
:10138000ABE0B0E0E6ECF9E00C9499304F8358877D
:1013900069877A878B8761110E944A111E821D829C
:1013A00085E0FE013796DE01119601900D928A9537
:1013B000E1F78C819D81892B61F449815A816B8190
:1013C0007C818D819E810E9473102B96E2E00C94AB
:1013D000B53089819A8189238F3F79F3CE010196B7
:1013E0000E94C2088111E9CFF0CFFC018081918178
:1013F0000E94390E0895CF93C82F8823B9F08CEF3F
:101400008C0F813AA8F46C2F809101019091020118
:101410000E949527882329F08C2F0E940A110E9490
:101420006B118C2F0E9402110E946B11CF910895B5
:1014300080E28C0F883048F4C77081E001C0880FCB
:10144000CA95EAF70E942D11EFCFEBE5EC0FE330E0
:1014500040F4F0E0EA59FE4F808190E00E94572767
:10146000E5CFC85AC73110F7EC2FF0E0EE0FFF1FA1
:10147000E85CFE4F808191810E946D27D7CF882341
:1014800039F19CEF980F913A28F40E940A110E94BA
:101490006B11089590E2980F983050F4877091E0A6
:1014A00001C0990F8A95EAF7892F0E943311EFCF77
:1014B0009BE5980F933028F490E080E00E94572736
:1014C0000895885A873120F490E080E00E946D27CB
:1014D00008951F93CF93DF93182FEB010E94FB0910
:1014E000209739F4812F0E943F0ADF91CF911F91FD
:1014F00008958FE99FE00197F1F700C00000219760
:10150000EFCF70E060E0893311F460E570E00E9495
:10151000690A0895882321F00E942D110E946B1101
:101520000895882321F00E9433110E946B110895C1
:10153000B0E0A0E0EEE9FAE00C9492306C01D62F16
:10154000C72FFC011281F580F2949FE0F9220E94DE
:101550002311E82E8823B9F0E12E1123A1F08C2F5E
:10156000807F803421F080E28D0F8830D0F0809130
:10157000F90282FF16C082E00E94CE110E94231160
:1015800091E0E82EE926BC2EB2948FE0B822FBE071
:10159000FB1508F468C0EB2DF0E0EB5BFE4C0C94FF
:1015A0007C30E12CF0CF0C2F0F70C07F11F0029532
:1015B000007F112399F0002359F080E28D0F8830CD
:1015C00010F0D11107C0802F0E942D110E946B11C5
:1015D0008D2F41C0802F0E943D11F8CF8D2F0E948A
:1015E0003F0A002309F43FC080E28D0F883010F0DD
:1015F000D11104C0802F0E94331103C0802F0E949C
:1016000043110E946B112FC00C2F0F70C07FC0328E
:1016100011F00295007FDD2381F0D13009F463C021
:10162000112309F46DC0FF2009F463C0F601858120
:1016300080FFCECF8F7085835CC08091F90282FDE0
:1016400033C0112359F0002329F0802F0E942D115F
:101650000E946B1180E00E94FB0905C080E00E949F
:101660003F0A0111C7CFEB2DE850FF0B349720F450
:101670000E9435270E949509EE2089F00E941F11D3
:1016800080FD0DC0F60112820E9419110E945D0DAD
:10169000C6010E94930C0E9419110E94690DCDB7DA
:1016A000DEB7E9E00C94AE30112389F0F11006C0EA
:1016B0000E944D11802B0E948A0AD5CF21E0F212A0
:1016C000F7CF0E944D11802B0E945411CCCFF11006
:1016D00006C00E946111802F0E94910AC4CF31E0A0
:1016E000F31609F2F6CF112331F085E08F1508F4D7
:1016F000BACF802FE0CF94E09F1508F4B4CFEBCFA2
:10170000FF2049F3D93349F4FFEF27EE33E0F150DE
:1017100020403040E1F700C000008D2F0E943F0ABA
:10172000A2CF8C2F86958695837069F0813009F061
:101730009ACF8D2F9C2F9370111102C090E080E002
:101740000E946D2790CF8D2F9C2F9370111102C096
:1017500090E080E00E94572786CF8C2F837079F528
:10176000111181CF4D2F429546954770440F440F7C
:101770008D2F8F70042E01C0880F0A94EAF72D2F49
:101780002071D4FF07C02FE030E001C0220F4A953E
:10179000EAF72095C695C695C370822BC23049F0F2
:1017A00058F4C13019F00E942B0D5DCF0E94250D19
:1017B0005ACF0E94310D57CF0E94220D54CF8695EB
:1017C000112311F08C2F8170882309F44CCF4D2FF9
:1017D000429546954770440F440F8D2F8F70042E0D
:1017E00001C0880F0A94EAF72D2F2071D4FF07C09B
:1017F0002FE030E001C0220F4A95EAF72095C69508
:10180000C695C370822BC23049F058F4C13019F02C
:101810000E94880D28CF0E94820D25CF0E948E0D38
:1018200022CF0E943A0D1FCFCF70112329F08C2FA9
:101830000E945D0D8D2F3FCF8D2F0E94910A8C2F1E
:101840000E94690D10CFD23F51F160F4D03FB9F042
:10185000D13F81F0112309F449C0F110B9CE8C2F8A
:101860008F7121C0D33F11F1D43FA1F78091F902CC
:1018700082FD26C08C2F8F71112311F314C0112308
:1018800049F084E08F1508F4EECE8C2F8F710E9402
:10189000760DE9CE95E09F1508F4E5CEF6CF8C2FB6
:1018A0008F711111CDCF0E945D0DDDCE112329F076
:1018B0008C2F8F710E94540DD6CE0E94410DD3CE35
:1018C000112349F0CF718C2F0E945D0D63E08C2FA6
:1018D0000E94B011C8CE81E00E94CE11E1E0EF1568
:1018E00008F0C1CE82E00E94CE11BDCEF1100ACF29
:1018F0008C2F8F71A5CF0F931F93CF93DF93EC01A4
:10190000688179818A810E94440E8C010E94940D25
:101910000E94210DB801CE010E94980ADF91CF915B
:101920001F910F910895CF93DF93EC018B819C81E0
:10193000892B29F08881998189238F3F51F4DF9188
:10194000CF910895CE010E947B0CCE010E94C40865
:10195000F6CFCE010E9416098111F4CF0E94231107
:10196000882369F38A81882351F38091F90282FFE9
:10197000E6CF82E00E94CE11E2CF90E080E00E94AC
:10198000572790E080E00E946D270E944A110E9434
:101990006B1108950E9412110E94BD0C08950E94BF
:1019A0003A110E94CA0C089592959F70963091F05A
:1019B00058F4925F9F70923058F4803F19F030F4E1
:1019C000883E30F481E008959A5FF4CF843FD1F3EC
:1019D00080E00895883EB0F3813FD1F7F3CFFC015A
:1019E00083819481892B29F08081918189238F3F84
:1019F00011F480E00895808191810E94390E0E9447
:101A0000D40C0895A5E0B0E0E8E0FDE00C94993036
:101A10002596E2E00C94B530A6E0B0E0E2E1FDE00E
:101A20000C9499302696E2E00C94B53008950E940B
:101A3000160D08950E94170D809311020E94BD0C8F
:101A4000089508950E941A0D089590911102892B0E
:101A50000E941A0D08959091110289230E941A0D77
:101A600008959091110289270E941A0D08950E94ED
:101A7000140608950E94370D809310020E94BD0C39
:101A8000089580E00E943A0D0895811105C081E01B
:101A9000662349F080E0089590E002C0959587950F
:101AA0006A95E2F78170089591E001C0990F8A95D7
:101AB000EAF7892F0E943A0D089521E030E001C035
:101AC000220F8A95EAF780911002822B0E943A0D2C
:101AD000089521E030E001C0220F8A95EAF72095B1
:101AE0008091100282230E943A0D089521E030E097
:101AF00001C0220F8A95EAF78091100282270E9486
:101B00003A0D089590911002892B0E943A0D089584
:101B10009091100289230E943A0D0895909110022D
:101B200089270E943A0D08950895262F277091E085
:101B300001C0990F2A95EAF723E0769567952A95D3
:101B4000E1F7FB01EE0FFF1FE60FF71FE40FF51F94
:101B500050E040E0682F70E08191DF0111979B0118
:101B6000042E02C0369527950A94E2F7217021953C
:101B70002827292328272C934F5F5F4F4330510597
:101B800059F70895A82FA77023E0969587952A9571
:101B9000E1F7FC01EE0FFF1FE80FF91FE60FF71F3B
:101BA00050E040E080E0219130E00A2E02C03695FE
:101BB00027950A94E2F721703327042E01C0220FE3
:101BC0000A94EAF7822B4F5F5F4F4330510559F774
:101BD0000895262F9C3068F4883058F438E0939F9D
:101BE000B0011124680F711D4CEE51E0822F0E944C
:101BF000950D08959C3070F4883060F448E0949F0F
:101C0000900111246CEE71E0820F932F911D0E94C0
:101C1000C20D089580E00895CF92DF92FF920F9356
:101C20001F93CF93DF936C010091100280911102FA
:101C3000082BC7E0D0E010E0FC2EC8010C2E02C03B
:101C4000959587950A94E2F780FD0CC02197A0F73F
:101C5000F12C8F2DDF91CF911F910F91FF90DF908D
:101C6000CF900895B6018C2F0E947B14019771F3D9
:101C7000F0CFCF93DF93EC010E940C0EBE010E94C7
:101C80007B14DF91CF9108951F93CF93DF93EB01E6
:101C90009091EB01992339F0CB010E94390EDF912D
:101CA000CF911F910895882369F0CB010E940C0EFB
:101CB000182F682FCE010E94E90DBE01812F0E94CE
:101CC0007B14EDCFCB010E94FA0D182FF6CF1F9396
:101CD000CF93DF93C091120216E0809113028C1310
:101CE00004C0DF91CF911F910895D0E01C9FF001B7
:101CF0001D9FF00D1124EC5EFD4F408151816281EA
:101D00007381848195810E940C0D2196C770E5CF67
:101D10004091440250914502609146027091470201
:101D200080914802909149020E940C0D08951F93E2
:101D3000CF93DF9380914902807F09F049C0809161
:101D40004602882309F444C080911202C091130214
:101D50006091440270914502A0914702B0914802FF
:101D6000D62FD72316E0C81799F190E0109711F0FD
:101D7000DF3F19F401968770F6CF189F9001199FE5
:101D8000300D1124F901EC5EFD4F41814713F2CF74
:101D900040814613EFCF42814111ECCF4381548102
:101DA0004A1B5B0B483C510528F7809149028F7014
:101DB000806180934902F901E75EFD4F80818F7059
:101DC0008061808384E492E00E94930C0E94670EFD
:101DD000DF91CF911F910895A1E1B0E0E2EFFEE025
:101DE0000C9491308C0185E0F801DE011D96019084
:101DF0000D928A95E1F7F801E28084E4C82E82E032
:101E0000D82E60914702709148026115710509F45E
:101E10004EC19091440220914502892F82238F3F29
:101E200009F445C140815181A380B480F0904602FD
:101E3000F501E61BF70BFF2009F4EAC08091490287
:101E4000382F307FE83CF10508F0A3C031116DC098
:101E5000FE2C251316C0941314C0E11012C08F700D
:101E60008061809349020E94880EC6010E94930CF3
:101E700080914902F80185838F2D6196EAE00C94E8
:101E8000AD30A114B10429F0842F85238F3F09F0D0
:101E900027C180E0F82FF170DF2E80FF3CC08091D9
:101EA00012022091130236E0821315C04D875E871F
:101EB0008D859E850E94390E292F22952F70223004
:101EC000F0F0243018F59F70F1F0F8019581907FC3
:101ED000D1F4D12C1EC090E0389FF001399FF00D55
:101EE0001124EC5EFD4F6181651306C060816413AF
:101EF00003C06281E6120FC001968770D5CF9F7034
:101F000011F0882331F3805E883018F3C8010E94F5
:101F1000930CFD2CB1CFEE2009F4AECF8091490295
:101F2000816080934902F12CA7CF251306C094133A
:101F300004C0F801EE2009F487C0C8010E94EF0C2C
:101F4000882319F1EE2009F180914902803270F066
:101F5000209144023091450238872F831986BB8631
:101F6000AA868C87CE0107960E94930C86E0F80122
:101F7000A4E4B2E001900D928A95E1F70E94970ED9
:101F80000E94880EFF24F39477CFC8010E94930C1F
:101F9000F9CF311113C07A2DB98AA88A6E2D89899B
:101FA0000E94020D84E492E00E94930C86E0F60108
:101FB00011928A95E9F70E94880EB5CF25130FC0BC
:101FC00094130DC0E1100BC0F8018583C8010E9475
:101FD000930C86E0F60111928A95E9F74DCFC8017E
:101FE0000E94EF0C882389F2EE2079F28091490259
:101FF000803208F4BBCF20914402309145023A83ED
:1020000029831B82BD82AC828E83CE010196ACCF28
:10201000E83CF10508F03EC0FE2CEE2009F4B5CFF7
:1020200025132AC0941328C08091490280FD1BC04B
:10203000982F907FC1F0F8018583903F31F0982F61
:10204000907F905F8F70892B8583C8010E94930CCD
:1020500086E0F801A4E4B2E001900D928A95E1F7E0
:102060000E94880E09CF86E0F801A4E4B2E0019056
:102070000D928A95E1F700CFC8010E94EF0C811103
:1020800075CF80914902816080934902C8010E9406
:10209000930CF2CE7A2DB98AA88A6E2D89890E9476
:1020A000020D86E0F60111928A95E9F7D9CFEE206C
:1020B00009F46BCFC8010E94EF0CF82E882309F4B5
:1020C00064CF86E0F801A4E4B2E001900D928A9515
:1020D000E1F784E492E00E94F5090E94970EC0CFD8
:1020E00081E08E25D7CEACE0B0E0E9E7F0E10C94DA
:1020F00098304F83588769877A878B879C87CE0172
:1021000007960E94EC0E882369F08A859B85892BAF
:1021100039F04F815885842F85238F3F09F06BC09C
:1021200016E05FC086E0FE013796DE011196019051
:102130000D928A95E1F78A859B85892B89F38F819A
:10214000988589238F3F61F32091130230E0C90104
:10215000019687709927409112024817190671F469
:102160000E94CF0C109213021092120286E0E4E457
:10217000F2E0DF011D928A95E9F7D2CF96E0929FB7
:10218000D001939FB00D1124AC5EBD4FFE0131967E
:1021900001900D929A95E1F7809313020E94670EC9
:1021A000BFCF819FC00111248C5E9D4F0E94EC0E19
:1021B0008823E9F0E09112021E9FF0011124EC5EE9
:1021C000FD4F4081518162817381848195810E949C
:1021D0000C0D8091120290E00196877099278093F0
:1021E000120280911202909113028913DACF2C9679
:1021F000E3E00C94B43069857A858B859C850E94D8
:102200000C0D8ECF682F80910101909102010E94E8
:10221000CB270895682F80910101909102010E94BF
:10222000CE27089580910101909102010E94D1274B
:1022300008958091520285958595859508958091A0
:1022400052028770089590915202977081E009F4CC
:1022500080E0089580915D02089590915D02892B40
:1022600080935D020895809590915D0298239093EC
:102270005D02089510925D02089590915C02892B91
:1022800080935C020895809590915C0298239093CE
:102290005C02089510925C020895809153020895A3
:1022A00008950E94501108959091F90292FF08C07C
:1022B00090915302981721F0809353020E9451117C
:1022C000089580915302882329F01092530280E0F0
:1022D0000E9451110895CF93DF93E0910101F09195
:1022E000020180915D028083E0910101F091020181
:1022F000808190915C02892B808390915302992375
:1023000081F0E0910101F09102018081892B8083AD
:1023100080910101909102010E94832781110E9406
:102320006111C0910101D091020148E050E06AE4DE
:1023300072E0CE010E94EB30892B59F088E0FE015B
:10234000AAE4B2E001900D928A95E1F7CE010E94D5
:102350004C27DF91CF91089508950E94AC11089504
:102360009091F90292FF11C098E0899F9001112489
:10237000622B609352020E945D0D809152028595FE
:10238000859585950E94AD1108950E945D0D089573
:102390001092520280E00E94AD1108959091520275
:1023A0008095892380935202282F277091F4282F3B
:1023B000082E000C330B9217130659F09091F90276
:1023C00092FF07C08595859585950E94690D0E94AD
:1023D000C81108959091F90292FB222720F928173D
:1023E00069F080FB92F99093F9028091F802909144
:1023F000F9020E943C1282E00E94CE110895809161
:10240000F90282FB882780F991E089270E94EA116E
:10241000089581E00E94EA11089580E00E94EA1187
:1024200008956FEF7FEF90E080E00E942D310895D6
:1024300090E080E00E940931883E9E4F19F40E948E
:10244000E219089580E0089582E090E00E94013151
:10245000089583E090E00E9401310895CF9384E0D5
:1024600090E00E940131C82F82E290E00E94013189
:10247000982F8C2FCF910895CF93C92F682F84E088
:1024800090E00E940F316C2F82E290E00E940F31A9
:10249000CF910895AB01BC018FE090E00E94213103
:1024A0000895AB01BC0183E190E00E9421310895C1
:1024B00060E070E0CB010E945112089560E070E08E
:1024C000CB010E944A120E945812089568EE7EEFD6
:1024D00090E080E00E942D3160E082E090E00E9478
:1024E0000F3160E083E090E00E940F311092110202
:1024F00060E084E090E00E940F3164E082E290E0CE
:102500000E940F3160E085E090E00E940F3160E0B2
:1025100086E090E00E940F316FEF87E090E00E942C
:102520000F3140E050E0BA0188E090E00E94213194
:1025300060E08DE090E00E940F3140E050E0BA0191
:1025400088E190E00E94213160E087E190E00E9404
:102550000F3140E050E0BA018CE190E00E9421315F
:1025600070E060E080E290E00E942D3140E050E0B9
:10257000BA0188E190E00E94213180E00E94FB19BD
:102580000E942A1A0E945E1208950E9466120895FF
:10259000682F8EE090E00E940F3108950E948828F5
:1025A0006093700270937102809372029093730231
:1025B00060936C0270936D0280936E0290936F0231
:1025C0000895089508950E94E21208950E940C064D
:1025D000089585EA95E10E942B270E94E1120E944E
:1025E000E31208950E948B170895089508950E949C
:1025F000F5120E94F61208950E94C4150E949409D3
:1026000008950E9473280E9465150E943A1A0E943C
:10261000A6170E94E8160E94FC120E94321B80E05E
:102620000E948A1B0E94B0170E94E6120895AAE039
:10263000B0E0EDE1F3E10C9491300E940B1780E6DD
:10264000A82E82E0B82E750110E0F70101917F01FC
:10265000812F0E94E7151F5F1C3009F440C0081746
:10266000A1F38091740281FD0E94ED150E94F21287
:10267000C82E10E0812F0E94E715082FF5018191E7
:102680005F01081731F1D02ED826F12CEE24E39407
:102690008D2D8E21B1F0CC20A1F0FE821F8391E020
:1026A000802F8E2109F490E098870E947C28816019
:1026B000782F9A8789874E815F8168858A850E94F5
:1026C000C009F394EE0CF8E0FF12E2CFF501319768
:1026D00000831F5F1C3071F60E94CE1220C00813C9
:1026E000C0CF0E947C288C0180915E0290915F0295
:1026F00008171907A1F08FEF89838A831B820E9434
:102700007C288160782F9D838C8349815A816B81DD
:102710008D810E94C00910935F0200935E020E94A7
:102720008B170E94321D0E94A7092A96EAE00C949A
:10273000AD30CF93DF930E948014EC01811522E528
:102740009207E8F5811531E5930708F0A3C0883EAC
:10275000910510F5803E910570F5883A910570F469
:10276000853A910508F078C08130910521F10097F4
:1027700011F1049700F5D0E0C0E01DC08F3B91053A
:10278000D0F7C85AD0E0CC0FDD1FC759DE4F0990F3
:10279000D881C02DD4640FC0811540E5940708F09E
:1027A00066C0C11580E4D80708F05EC0CE019A95D6
:1027B00081159F4100F7CE01DF91CF9108958115DA
:1027C00036E5930718F5811545E5940708F07BC0B9
:1027D000C11584E5D80708F071C09E012370332726
:1027E0009C2F96959695C115D34508F458C0C1E025
:1027F000D0E002C0CC0FDD1F2A95E2F730E2939FB4
:10280000C0011124C82BD92BDA68D5CFC1158AE5B0
:10281000D80778F4C11529E5D20708F05EC0C115C4
:1028200038E5D30708F4A7CFDC2FCC27C06FD06AD8
:10283000C2CFCE0190568115904208F09CCF8D2FCB
:102840008F710E94221590E0982F882788279F710A
:102850009C012C2BE9013FC0C55AD0E0C956DE4F80
:10286000C881D0E0D064A7CFDF70D06AA4CF8370D6
:10287000992721E030E002C0220F331F8A95E2F74A
:10288000C695C69580E2C89FE0011124C22BD32BC8
:10289000DD6891CFD82FCC27C16FD06A8CCFC1E033
:1028A000D0E002C0CC0FDD1F2A95E2F720E2929F14
:1028B000C0011124C82BD92BDC687DCFDC2FCC279D
:1028C000C46FD06A78CF0E942215C82FD0E0DC2FC9
:1028D000CC27CC27DF71D0626ECF8C2F8F700E94F7
:1028E000221534E0D695C7953A95E1F7CF709C2F25
:1028F000EC01D06960CF0E9472200E949913089564
:1029000082389105B9F1B0F48133910509F47DC0A5
:1029100048F48932910509F46DC08A32910509F4B1
:102920007BC008958533910509F45FC08933910513
:1029300009F10895833E9105D9F138F4803E91055F
:1029400029F1823E910579F10895863E9105D9F1EC
:10295000873E910509F43EC0843E910541F52091E2
:10296000F90221FF24C08091F80284FD19C087EE8E
:1029700090E008952091F802237009F05AC0209148
:10298000F90223FF14C089E290E008952091F80233
:1029900020FD38C03091F90230FF09C024FF43C048
:1029A00090E080E008952091F80222FDF7CF08958D
:1029B0002091F80222FD3AC03091F90230FD39C071
:1029C00024FFF5CFEDCF2091F80223FFF0CF24FDB7
:1029D000E7CFCDCF2091F80223FD2EC03091F90230
:1029E00031FFEECF84EE90E008952091F80225FFAC
:1029F000DECFC9CF2091F80225FD21C02091F90238
:102A000023FFD5CF89E390E0D2CF2091F80226FFB3
:102A1000CECF8AE290E008952091F80226FFC7CF3A
:102A200081E390E0089583EE90E0089582EE90E0D7
:102A3000089580EE90E0089586EE90E0089585E395
:102A400090E008959091F80292FF06C0282F287117
:102A50002830F9F4877F846093FF06C0282F2871FF
:102A60002831F1F4877E84612091F90220FF06C0AD
:102A7000382F38713830D9F4877F816021FF06C044
:102A8000282F28712831D1F4877E816194FD877EBB
:102A90000895282F24712430F9F68B7F8860DCCFCD
:102AA000282F2471243101F78B7E8861DDCF382FE8
:102AB0003171313019F78E7F8860E0CF282F217176
:102AC000213121F78E7E8861E1CF1092F4021092BD
:102AD000F5021092F6021092F7020895CF92DF925B
:102AE000EF92FF926B017C010E948B1781110EC047
:102AF0000E948828C61AD70AE80AF90AC092F40286
:102B0000D092F502E092F602F092F702FF90EF9079
:102B1000DF90CF9008950F931F930E948B17882307
:102B200029F00E9488281F910F9108950E948828FB
:102B30000091F4021091F5022091F6023091F70213
:102B4000600F711F821F931FEECF80E008950E94D7
:102B5000111208950E940B172FEF89EF90E021507A
:102B600080409040E1F700C000000E940B1780E019
:102B70000E94E71581FF04C00E94A7150E94E32868
:102B800008950E94AA1508950E941812811102C08A
:102B90000E94C5120E942412809374020E942E1279
:102BA0009093F9028093F8020E94C1150E942912A5
:102BB0000E94220D809110020E94370D0895089501
:102BC0000E94DF15089508950E94E3150895E82FE7
:102BD000F0E0E95FFC4F80810895089580EA8A95CE
:102BE000F1F7089500C008950E94EE150895089524
:102BF0000E94F7150895A6E0B0E0E1E0F6E10C943C
:102C000095300E948B17F82E60911303882309F4E6
:102C100040C086E0E82E8E010F5F1F4FF8018E2D19
:102C200011928A95E9F7862F90E0B801895F9C4F51
:102C30000E94BE178823B9F08091FA0290E046E026
:102C400050E0B801895F9C4F0E94EB3021E0209357
:102C50007502892B91F4F12C0E94FA088F2D26968B
:102C6000E6E00C94B130809175028823A1F3F8015D
:102C70001192EA94E9F710927502A091FA02B0E07D
:102C8000A95FBC4F86E0F80101900D928A95E1F7AB
:102C9000E3CF70E0695F7C4F8091FA0290E0895F3A
:102CA0009C4F0E948B180E94F815D8CFF894E82FFB
:102CB000E295EF70F0E031A1282F2F7081E090E0D5
:102CC00001C0880F2A95EAF7982F9095932391A336
:102CD00092A1892B82A378940895CF93DF93CAE9B8
:102CE000D1E089918F3F11F00E94561681E0C23ADF
:102CF000D807B9F7C2EAD1E089918F3F11F00E945D
:102D0000561681E0C83AD807B9F7DF91CF910895F8
:102D1000B0E0A0E0EEE8F6E10C9493307C01162FD1
:102D2000042FC62FD0E0CE0186569E4F6C01EC01D9
:102D300028812F3F09F444C0F894E22FE295EF7008
:102D4000F0E031A12F7081E090E001C0880F2A955A
:102D5000EAF7932F982B91A392A18095892382A3C0
:102D600078940E94F215A2EAB1E0F70148EA51E036
:102D7000F12C602F60959D9180819F3F31F1292F2B
:102D800022952F7030E0E90128A130E09F7002C049
:102D9000359527959A95E2F720FD17C0802B808303
:102DA000FF24F39431964A175B0729F7F6018081D7
:102DB0008F3F11F00E9456166F2D812F0E94F4153F
:102DC000CDB7DEB7E8E00C94AF3086238083EACF3E
:102DD000809103018091030196E0811190E090932E
:102DE000130386E0891B8093FA020E946D168CE023
:102DF000E7E0F3E0DF01982F1D929A95E9F7EBEFFA
:102E0000F2E0DF011D928A95E9F786E00E944D17F6
:102E10000E94F7080895ACE0B0E0E1E1F7E10C941E
:102E200095308E010F5F1F4F8CE0F80111928A954B
:102E3000E9F7F12CEE24E3944E2D6F2DC8010E948A
:102E40008816F394EE0CF8E0FF12F6CF4CE050E059
:102E5000B8018BEF92E00E94EB3021E0009709F47B
:102E600020E0892B41F08CE0F801ABEFB2E001905B
:102E70000D928A95E1F76091130370E0695F7C4FD2
:102E800046E08BEF92E00E944E17182F0E94FB1530
:102E9000812B2C96E6E00C94B1300895CF92DF920E
:102EA000EF92FF920F931F93CF936C017B01042F3E
:102EB000222349F081E0809378020E947C2890933D
:102EC000770280937602C0917802C1110AC0C0E0F7
:102ED0008C2FCF911F910F91FF90EF90DF90CF90AB
:102EE000089580917602909177020E9494280A9723
:102EF00070F310E0A801B601C7010E94EB30892BE6
:102F000041F0A801B601C7010E94F8301092780282
:102F1000DFCFC0E0FBCF80917B02811107C00E9410
:102F20005B30882351F081E080937B0281E09091B7
:102F30007B02913009F080E0089582E080937B026B
:102F40000E945630F3CF0E948B1708950E94A3175A
:102F5000809303010E948B1781110E94F41708953A
:102F60000E948B17811102C00E94F717089581E01B
:102F700090917C029A3008F080E008950F931F939F
:102F8000CF93DF93EC018B0180917C028A30B8F4FF
:102F9000B801CE010E948818C82F811122C08091EB
:102FA0007C028F3FB9F40E947C2890937A02809330
:102FB00079028C2FDF91CF911F910F91089580910D
:102FC000790290917A020E949428843F914000F700
:102FD000C0E0EFCF8F5F80937C028A3020F7C1E0A2
:102FE000E8CF10927C02E5CF0E94FD24089582E391
:102FF0000E94782608950F931F9398E08902F001AC
:103000001124EC5FFE4F26813781232BA1F08093A2
:103010001C0560910501709106012091040130E0CA
:10302000AB01445E5A4F04E610E082E30E9404269E
:103030001F910F91089590E080E0FACFB0E0A0E0FA
:10304000E4E2F8E10C948C30582E69015801C82F45
:10305000880FDD0B4115510559F4852D0E94FB1792
:1030600097FF2CC080E0CDB7DEB7EFE00C94A8301E
:10307000CE0123E0880F991F2A95E1F7FC01EC5F50
:10308000FE4FE080F12C4E155F0508F47A018C5F4D
:103090009E4FFC0181809280C401845E9A4F3C0166
:1030A000A7010E94F83004E610E09701A301682D03
:1030B00082E30E94042697FFD0CFD4CFA114B1049D
:1030C00029F183E0CC0FDD1F8A95E1F7FE01EC5F6B
:1030D000FE4FE380F12CAE14BF0408F47501CC5F01
:1030E000DE4F6C817D81AB01445E5A4F04E610E0F7
:1030F000970182E30E942B2697FDB4CF6C817D81DE
:10310000645E7A4FA701C6010E94F83081E0ABCF20
:103110000E947A1908950E9491190895A4E0B0E0E0
:10312000E4E9F8E10C94973060918B0270918C0285
:1031300080918D0290918E020E94A32811E0643646
:1031400071058105910518F10E948B156E5F7F4F07
:103150008F4F9F4F69837A838B839C8310E000E0BD
:1031600030E020E044E050E0BE016F5F7F4F83E03D
:103170000E941E18182F882351F00E9488286093FF
:103180008B0270938C0280938D0290938E02812F1C
:103190002496E4E00C94B330B0E0A0E0E2EDF8E176
:1031A0000C9491307C015B016A010E94B71701E029
:1031B00010E0882311F00AE010E0C1E0D0E0B50192
:1031C000C701F6010995811104C021960C171D074E
:1031D0002CF4CDB7DEB7EAE00C94AD30CC9F900173
:1031E000CD9F300D300D112490E080E045E34A95ED
:1031F000F1F70000019682179307C1F7E0CFA7E02F
:10320000B0E0E5E0F9E10C9491307B01C090A801B9
:10321000D090A90101E010E09E01295F3F4F50E0EE
:1032200040E070E060E081E00E941E18182F8823C3
:1032300009F448C0560182E0A80EB11C60918702D3
:10324000709188028091890290918A020E94A3283D
:10325000643671058105910568F106E010E09E0174
:103260002F5F3F4F50E040E070E060E082E00E945E
:103270001E18D82E66E070E0C5010E94331B11E0D5
:103280009F81981310E01D2141F10E9488286093CE
:103290008702709388028093890290938A0286E065
:1032A000FE013196A1E8B2E001900D928A95E1F716
:1032B00011E013C066E070E0C5010E94331B9F81DE
:1032C0008913CBCF86E0F6013296DE01119601908C
:1032D0000D928A95E1F71111E2CF86E0E1E8F2E084
:1032E000D70101900D928A95E1F7812F2796EAE0A8
:1032F0000C94AD300F931F93CF93DF93EC018B01B0
:103300004FEF58E10E94CC18882331F04EE858E185
:10331000B801CE010E94CC18DF91CF911F910F917F
:1033200008950F931F93CF93DF93C091A801D0917D
:10333000A901CE01029626E0FB01DC0101900D926D
:103340002A95E1F766E070E00E94331B8983688567
:1033500079858A859B8500917D0210917E0220915E
:103360007F0230918002601771078207930751F046
:1033700060937D0270937E0280937F02909380021F
:103380000E946E15DF91CF911F910F9108950E94B9
:10339000AC2A0E9401130E94B92A08950E94BE2AF5
:1033A0000E9417130E94E12A08950E9415280E9486
:1033B000922A0E94E9120E94C7190E94CE190E9407
:1033C000F712FBCF83E290E00E940131833289F44F
:1033D00084E290E00E940131853059F485E290E06A
:1033E0000E94013191E0883109F090E0892F8170CD
:1033F000089580E0FCCFCF93C82F6FEF811163E277
:1034000083E290E00E940F316FEFC11165E084E22A
:1034100090E00E940F316FEFC11168E185E290E00A
:103420000E940F31CF910895089586E290E00E94A6
:103430000131682F70E090E080E008950895CF9307
:10344000C62F0E941E1A6C2F86E290E00E940F3158
:10345000CF91089580E00E94FB1960E070E0CB01FD
:103460000E941F1A0E94EC1F0E94CD2081E00E9442
:10347000FB1908950E94141A0E94151A0E941E1A20
:103480000E94E219811102C00E942A1A0895CF9366
:10349000FB01C281CC2309F19C0122513F4520311F
:1034A000310520F582510E94DD20C0E08C2FCF91A4
:1034B000089581E00E945D0D43E062E081E00E949A
:1034C000ED08F3CF81E00E94690D43E062E081E006
:1034D0000E94ED08EBCF82E0F6CF8031FFE59F0739
:1034E00089F381319F45B9F3C1E0E0CF8031EFE549
:1034F0009E07F9F281319F45C9F682E0DBCFEF925A
:10350000FF920F931F93CF93DF93EC01062FE88177
:10351000E150E33108F05DC0F0E0EF5AFE4C0C944E
:103520007C3019828AE08A83602FCE010E9465294F
:10353000CDB7DEB7E6E00C94B1308981823069F016
:10354000833071F08130D9F40E9488280E94823043
:103550006A837B838C839D83E7CF0E94151AF6CF05
:103560007E0182E0E80EF11C10E0812F0E94E71539
:10357000F70181937F011F5F1C30B9F7D5CF602F12
:10358000CE010E942808D0CF89818230C1F76A819C
:103590007B818C819D810E9482300E941F1AC4CF42
:1035A0004B816A8189810E94AE1F982789279827BD
:1035B0009D838C83B9CF2C813D81322723273227ED
:1035C0004B816A8189810E94D01FAECF0E94EC1F7F
:1035D000ABCF8FEF8883A8CF0E9480208983A4CFB0
:1035E0000E9482209827892798279A8389839CCFD5
:1035F0006B8170E089819A81AE014C5F5F4F9827A3
:10360000892798270E9485208FCF6B8170E0898160
:103610009A81AE014C5F5F4F9827892798270E94B7
:10362000A92082CF0E94CD207FCF0E949B1FD6CFA2
:103630006B8170E089819A81AE014C5F5F4F982762
:10364000892798270E942A206FCF6B8170E089819B
:103650009A81AE014C5F5F4F9827892798270E9477
:103660004E2062CF0895FC01680F791F8FEF91E320
:103670006E177F0709F408952191822728E030E032
:1036800087FF06C0880F892721503109C9F7F0CF7D
:10369000880FFACFB0E0A0E0E0E5FBE10C949330B6
:1036A0006C017B0164E670E088E70E940325EC0171
:1036B00097FD12C010E000E0F601E00FF11F8491C9
:1036C00064E670E00E946F25EC01892B29F40F5FFE
:1036D0001F4F0E151F0581F70E947426CE01CDB72E
:1036E000DEB7E8E00C94AF300895E4E1F3E080E069
:1036F00092E0DF019C011D9221503040E1F7F093F0
:103700001B05E0931A058FEF9FEF9093B50280930E
:10371000B4020895CF93DF93D82F0E948B17C82F40
:10372000882309F44CC08D2F0E94741B0E941F0631
:103730008093B00280FD12C080E88093AF020E94A7
:10374000FD246DE070E083EC99E00E944A1B892B18
:1037500039F0C0E08C2FDF91CF91089580E2EDCF5A
:103760008091B00263E070E081FD26C080EC99E0BA
:103770000E944A1B892B69F76DE070E080EB99E0AD
:103780000E944A1B892B29F70E94882868577C4E83
:103790008F4F9F4F60931605709317058093180500
:1037A000909319050E94751B81E08093B30280936A
:1037B000B2021092B102CECF8DEB99E0D9CFC1E029
:1037C000C9CF2091AF0238E0839FC0011124629FCE
:1037D000800D911D1124811522E0920714F090E0D4
:1037E00080E08C5E9C4F90931B0580931A05089592
:1037F0008091B302811103C08091B20208950E94AA
:10380000882868577C4E8F4F9F4F609316057093A2
:10381000170580931805909319058091B2028111C4
:10382000EBCF62E070E08EEA99E00E944A1B892BA0
:1038300019F781E08093B202DFCF2F923F925F921F
:103840006F927F928F929F92AF92BF92CF92DF92B0
:10385000EF92FF920F931F93CF93DF938091B30268
:10386000882369F02091B4023091B5022115310509
:1038700031F08091B10261E070E0882399F0DF912E
:10388000CF911F910F91FF90EF90DF90CF90BF905D
:10389000AF909F908F907F906F905F903F902F9010
:1038A00008958F5F082F10E01B01082E02C0220C24
:1038B000331C0A94E2F7A90142215321452B89F3D5
:1038C0009091B00290FD44C08295880F80768093DD
:1038D000260198013695279536952795209329013D
:1038E000815E8093270110922A0124E630E047E0B0
:1038F00050E064E271E088E70E94E325892B09F03B
:10390000BECFA80125E0440F551F2A95E1F780910D
:10391000B00280FD2BC04C5E5C4F04E610E020E25C
:1039200030E060E488E70E940426892B09F0A7CFE5
:103930000E94F81BE101C095D0958091B40290914E
:10394000B502C823D923D093B502C093B40297CF50
:10395000880F880F880F8093260110922901895FB4
:103960008093270183E080932A01BFCFEFE8F2E044
:1039700080E2DF011D928A95E9F7AEEAB1E00AEA3A
:1039800011E082EBC82E81E0D82E97E0592E7724E3
:1039900073948D91E80129918E01240F352F311DEB
:1039A0002C5E3C4FE82FF0E0E157FD4F90E080E0C7
:1039B000652C681A872C082E01C0880C0A94EAF737
:1039C0007901A12CE701B9907E01B820662D6A1912
:1039D0006770962E062E000C770BDB2D01C0DD0FD5
:1039E0009A94EAF77195619571096770772701C01C
:1039F000B6946A95EAF7BD2A6081962E9B2890823C
:103A0000A39468E0A612DECF019631968830910526
:103A100079F6CA16DB0609F0BCCF04E610E020E216
:103A200030E04FE852E07DCF8091B2029091B30236
:103A3000911103C091E089270895882369F062E01D
:103A400070E08CEA99E00E944A1B892B19F0809162
:103A5000B20208951092B2028091B202EBCF0E949E
:103A6000D20708950F931F938091B302882379F1B1
:103A700080911405909115050E949428C29760F0DA
:103A80000E947C28909315058093140560E080E0E7
:103A90000E94E11B0E942F1D0E941D1C8091B202FA
:103AA0008823A9F00E948828009116051091170517
:103AB0002091180530911905601B710B820B930B37
:103AC0006F3F7F4F8F4F9F4710F40E94141D1F912F
:103AD0000F910895CF93DF93EC01FB01828188233E
:103AE00009F464C1C330FDE5DF07E0F5CA3F9CE59A
:103AF000D90730F49E0122503C4524313105D8F5D8
:103B00000E942E129093F9028093F802C231ECE5E4
:103B1000DE0709F41FC108F06EC0C9308CE5D80774
:103B200009F4F2C008F03FC0C530ECE5DE0709F447
:103B3000DBC058F5C3308CE5D80709F4CDC008F0D8
:103B4000CFC08091F8028160C230DC4509F4AEC07C
:103B50008091F8029091F9020E943C120E94CF0CD1
:103B600080E009C0C53AEDE5DE0751F238F4C13610
:103B70009DE5D90729F2DF91CF9108959E012D5A35
:103B80003D4523303105B8F7BBCF8091F802806204
:103B9000C730FCE5DF0709F489C008F4B1C08091A3
:103BA000F802806483C0CD309CE5D90709F4BAC01F
:103BB00070F48091F8028E7FCB30FCE5DF0709F4CA
:103BC00075C008F4A7C08091F8028D7F6FC0CF3018
:103BD0009CE5D90709F4B6C008F4A8C0C031FCE5DB
:103BE000DF0709F4B3C0C131DC4509F0B1CF8091E2
:103BF000F8028F7B5BC0CF3F9CE5D90709F4B4C0C6
:103C000098F5CA3FFCE5DF0709F472C0B8F4C43187
:103C10009CE5D90709F4B6C008F4A2C0C531DC455B
:103C200009F096CF8091F80282FB992790F921E064
:103C3000922790FB82F990FB83F938C0CC3F8CE54A
:103C4000D80709F477C008F457C0CD3FECE5DE078C
:103C500009F474C08091F9028360CE3FDC4509F01D
:103C600077CF8093F90274CFC1368DE5D80709F478
:103C700096C068F4C130EDE5DE0709F48CC008F4A5
:103C800077C0C230DD4509F063CF80E085C0CD3A12
:103C90009DE5D907E9F068F49091F802892F8E7FAD
:103CA00090FF8160C53ADD4509F052CF8093F8025C
:103CB0004FCFCE3A8DE5D80789F1CF3ADD4509F0EF
:103CC00047CF9091F902892F877F93FF8860C9CFF2
:103CD0008091F9028860C5CF8091F8028260E6CFBA
:103CE0008091F8028460E2CF8091F8028860DECF94
:103CF0008091F9028160B5CF8091F9028260B1CFE5
:103D00008091F8028061D2CF0E94CF0C8091F8029E
:103D10008068CCCF8091F8028C60C8CF8091F90286
:103D2000877F9FCF8091F8028B7FC0CF8091F80270
:103D3000877FBCCF8091F9028E7F93CF8091F9026B
:103D40008D7F8FCF8091F8028F7EB0CF8091F80267
:103D50008F7DACCF0E94CF0C8091F8028F77A6CFD9
:103D60008091F802837FA2CF8091F9028C7F79CF76
:103D70008091F902982F909591708E7F892B90FBFE
:103D800081F96FCF0E94CF0C9091F802892F97FB99
:103D900087F980588BCF81E00E94C812D9CE9091CC
:103DA000F802892F8F7E94FF806180CF81E0E3CE7F
:103DB000B0E0A0E0EEEDFEE10C949430E82FF0E0EE
:103DC000E053F64FD490282F26952695269530E07F
:103DD000F901E059F54F0491877010E0082E02C0F8
:103DE000159507950A94E2F701701127F901E05A39
:103DF000F54FE490F12C082E02C0F594E7940A9454
:103E0000E2F791E0E922FF24F901E05BF54FC4916C
:103E1000D0E002C0D595C7958A95E2F7C170DD273D
:103E20000115110519F081EE0E94FB09E114F1045E
:103E300019F086EE0E94FB098D2D0E94810AE11483
:103E4000F10419F086EE0E943F0A0115110519F0E0
:103E500081EE0E943F0ACD2B19F08CE20E94810A6C
:103E6000CDB7DEB7E7E00C94B030EF92FF920F933E
:103E70001F93CF93DF93EC01162F0AE088818823EC
:103E800009F454C0813009F04EC08981813099F421
:103E90007E0122E0E20EF11C8A810E94810AE70184
:103EA0002196812F815050F3EFE9FFE03197F1F730
:103EB00000C00000F7CF823041F47E0182E0E80EBE
:103EC000F11C8A810E94FB09EACF833041F47E0114
:103ED000E2E0EE0EF11C8A810E943F0AE0CF8430BE
:103EE00011F02196DDCF2A81229690E080E0AE018C
:103EF0004F5F5F4F2053330B2A30310548F0019755
:103F000078F2EFE9FFE03197F1F700C00000F7CF5A
:103F1000089FB001099F700D1124C901860F971FDA
:103F20002981EA01E4CF0E94D81EBACFCDB7DEB70F
:103F3000E6E00C94B13084E0089590E1699FB0010F
:103F4000112450E0440F551F640F751F90EC899F9A
:103F5000600D711D1124CB01879608950F931F9357
:103F6000CF93DF938430C8F46C30B8F44830A8F4B1
:103F70000E949D1F8C010E940131C82FD0E0DC2FD0
:103F8000CC27C80101960E9401319E01282BC9014E
:103F9000DF91CF911F910F91089590E080E0F8CFCD
:103FA0000F931F93CF93DF93122F032F843078F456
:103FB0006C3068F4483058F40E949D1FEC01602F6B
:103FC0000E940F31612FCE0101960E940F31DF91C7
:103FD000CF911F910F910895B0E0A0E0E2EFFFE1D3
:103FE0000C9492309CEAC92E96E0D92ED0E0C0E025
:103FF0007601B12C20C00E94810821E030E08C17AE
:104000001D0641F03CF0F801EE0FFF1FEE0DFF1D05
:1040100025913491402F6B2D8C2F0E94D01F0F5F64
:104020001F4F0830110539F780E1E80EF11CB394F9
:104030008CE0B81619F010E000E0DDCF219680EC9E
:10404000C80ED11CC430D10599F6CDB7DEB7E9E072
:104050000C94AE30EF92FF920F931F93CF93DF93A8
:10406000EC018A017C01E60EF71ECE018796CE1583
:10407000DF0529F4CDB7DEB7E6E00C94B130C11509
:1040800023E0D20740F40E940131F80180830F5FE2
:104090001F4F2196EACFF8011082F9CFB0E0A0E0DF
:1040A000E4E5F0E20C9493307C016A018C01060F88
:1040B000171FEC01CE018796C017D10729F4CDB7A1
:1040C000DEB7E8E00C94AF30C11523E0D20740F42E
:1040D000FE01EE19FF09EC0DFD1D60810E940F31FC
:1040E0002196E8CF462F843040F47C3030F468309D
:1040F00020F4672F0E94AE1F089590E080E008959D
:1041000080E1089589ED90E00895EF92FF920F937A
:104110001F93CF93DF93EC018A017C01E60EF71E1B
:10412000CE01895D9C4FCE15DF0529F4CDB7DEB7F2
:10413000E6E00C94B130C93DD10540F40E94013154
:10414000F80180830F5F1F4F2196EACFF80110829C
:10415000F9CFB0E0A0E0EFEAF0E20C9493307C01FC
:104160006A018C01060F171FEC01CE01895D9C4F7F
:10417000C017D10729F4CDB7DEB7E8E00C94AF3013
:10418000C93DD10540F4FE01EE19FF09EC0DFD1DFE
:1041900060810E940F312196E8CFCF93DF93C7E271
:1041A000D3E060E0CE010E940F312196C11584E07A
:1041B000D807B9F7DF91CF910895A4E0B0E0E3EE1E
:1041C000F0E20C949430F82E8FE08F1548F18FEFC9
:1041D00093E00E940131811123C007E213E0F11046
:1041E00023C019821A821B821C82DD24D394780199
:1041F0008FEFE81AF80AC8010E94013189831A82F8
:10420000882371F09FEF980F9330D8F48A83D98276
:104210000E5F1F4FC7010E9401318B83811112C0B5
:104220002496E7E00C94B030011584E01807C1F340
:10423000C8010E940131811101C0FA940F5F1F4F24
:10424000CECF870160E0CE0101960E94351FCFCF0F
:10425000CF93DF93EB0186319C4511F50E942A1123
:104260009A81992399F08A7A91E009F490E09093E9
:10427000B602811109C089E20E9402110E946B11ED
:1042800080E0DF91CF91089585E3F6CF8091B6026B
:10429000811104C089E20E940A11F0CF85E3FBCFAF
:1042A00081E0EFCFB0E0A0E0E8E5F1E20C948B30E4
:1042B000EC01E881F981CF01815095458F3F91054F
:1042C00010F485E5F827DB0112964C90442009F4A0
:1042D0005AC2EF3FF105A9F0A0F0EA32FD4521F006
:1042E0001092B702A42D07C08091B70291E08927F0
:1042F0008093B702A0E08A2FCDB7DEB7E0E10C943F
:10430000A730A091B702AA2309F4E9C01092B7021E
:10431000E03CF105F0F5E038F10508F0AAC0E03422
:10432000F10508F070C021E030E040E050E060E0CE
:1043300070E080E090E00E2F0E94C030B091B80293
:104340002B2BB091B9023B2BB091BA024B2BB09101
:10435000BB025B2BB091BC026B2BB091BD027B2BDF
:10436000B091BE028B2BB091BF029B2B2093B80261
:104370003093B9024093BA025093BB026093BC02DF
:104380007093BD028093BE029093BF02F983E883CD
:10439000B2CFEF3FF10509F030F621E030E040E028
:1043A00050E060E070E080E090E08F01005C110977
:1043B0000E94C030B091D0022B2BB091D1023B2B88
:1043C000B091D2024B2BB091D3025B2BB091D402AF
:1043D0006B2BB091D5027B2BB091D6028B2BB09179
:1043E000D7029B2B2093D0023093D1024093D2026C
:1043F0005093D3026093D4027093D5028093D60277
:104400009093D702C3CF21E030E040E050E060E07D
:1044100070E080E090E08F01005411090E94C030EC
:10442000B091C0022B2BB091C1023B2BB091C202C4
:104430004B2BB091C3025B2BB091C4026B2BB0919C
:10444000C5027B2BB091C6028B2BB091C7029B2B70
:104450002093C0023093C1024093C2025093C30222
:104460006093C4027093C5028093C6029093C70202
:104470008DCF21E030E040E050E060E070E080E08F
:1044800090E08F01005811090E94C030B091C8021D
:104490002B2BB091C9023B2BB091CA024B2BB09190
:1044A000CB025B2BB091CC026B2BB091CD027B2B5E
:1044B000B091CE028B2BB091CF029B2B2093C802E0
:1044C0003093C9024093CA025093CB026093CC024E
:1044D0007093CD028093CE029093CF0257CFE034F9
:1044E000F10508F067C07090B8028090B902909012
:1044F000BA02D091BB02C091BC02B091BD025090F3
:10450000BE026090BF0221E030E040E050E060E099
:1045100070E080E090E00E2F0E94C03059016A01E7
:104520007B018C0127213B2D382149215D2D5D2305
:104530006C237F2D7B238521912F96210E94D930DA
:1045400009F0D0CEE03CF10508F08EC0E038F1056E
:1045500008F0EBC0E034F10508F0B9C021E030E02C
:1045600040E050E060E070E080E090E00E2F0E94BC
:10457000C030209530954095509560957095809508
:1045800090952721382149215D236C237B238521A8
:1045900096212093B8023093B9024093BA02509307
:1045A000BB026093BC027093BD028093BE029093E5
:1045B000BF02A1CEE038F105E0F47090C002809017
:1045C000C1029090C202D091C302C091C402B091C6
:1045D000C5025090C6026090C70221E030E040E082
:1045E00050E060E070E080E090E08F01005411093D
:1045F00093CFE03CF105E0F47090C8028090C902CE
:104600009090CA02D091CB02C091CC02B091CD0261
:104610005090CE026090CF0221E030E040E050E0C8
:1046200060E070E080E090E08F010058110974CFE5
:104630007090D0028090D1029090D202D091D3029B
:10464000C091D402B091D5025090D6026090D702AA
:1046500021E030E040E050E060E070E080E090E099
:104660008F01005C110958CFEF3FF10511F008F000
:1046700075CF8F01005C110921E030E040E050E08F
:1046800060E070E080E090E00E94C03020953095BE
:10469000409550956095709580959095272138218B
:1046A00049215D236C237B23852196212093D00211
:1046B0003093D1024093D2025093D3026093D4023C
:1046C0007093D5028093D6029093D70214CE8F01B7
:1046D0000054110921E030E040E050E060E070E07B
:1046E00080E090E00E94C030209530954095509534
:1046F00060957095809590952721382149215D23FB
:104700006C237B23852196212093C0023093C10224
:104710004093C2025093C3026093C4027093C502D7
:104720008093C6029093C702E6CD8F01005811090D
:1047300021E030E040E050E060E070E080E090E0B8
:104740000E94C030209530954095509560957095A9
:10475000809590952721382149215D236C237B2367
:10476000852196212093C8023093C9024093CA0242
:104770005093CB026093CC027093CD028093CE0213
:104780009093CF02B8CDA1E0EF3FF10509F098F585
:10479000E034F10590F58090B8029090B902D09184
:1047A000BA02C091BB02B091BC02A091BD02609060
:1047B000BE027090BF0221E030E040E050E060E0D7
:1047C00070E080E090E00E2F0E94C03059016A0135
:1047D0007B018C0128213B2D39214D235D2D5C234C
:1047E0006B237F2D7A23A1E08621912F97210E94B0
:1047F000D93009F4A0E0A1707ECDE038F105E0F4F5
:104800008090C0029090C102D091C202C091C302B8
:10481000B091C402A091C5026090C6027090C70218
:104820008F010054110921E030E040E050E060E0E9
:1048300070E080E090E0C8CFE03CF105A0F480900B
:10484000C8029090C902D091CA02C091CB02B09127
:10485000CC02A091CD026090CE027090CF028F0169
:1048600000581109E0CF8090D0029090D102D091F1
:10487000D202C091D302B091D402A091D50260902F
:10488000D6027090D7028F01005C1109CCCF0F9334
:104890001F93CF93DF93C42FD22FFC0182818823F3
:1048A000C9F04093DA020E947C289093D902809349
:1048B000D80280E28C0F883040F4C77081E001C0DC
:1048C000880FCA95EAF70E948A0ADF91CF911F915B
:1048D0000F9108951091DA02141332C08091D8021A
:1048E0009091D9020E949428883C910548F5C0E235
:1048F000CD0F1D17B9F080E2810F883040F417709A
:1049000081E001C0880F1A95EAF70E94910AC83029
:1049100048F481E09D2F977001C0880F9A95EAF7BF
:104920000E948A0A802F0E94810AC83070F6D770D0
:1049300081E001C0880FDA95EAF70E94910AC5CF9D
:1049400080E28C0F883008F6C77081E001C0880FC4
:10495000CA95EAF7F2CF0F939C01CB01233F4CE5B8
:10496000340759F1A8F4283DFCE53F0701F1293D42
:104970004CE53407D1F1273D3C4591F406E221EEA8
:1049800041EE67ED7CE50E94472480E00F91089599
:10499000253FFCE53F07E9F0B0F0263F3C45F9F044
:1049A000FC018281882339F11092DA02EFCF07E20D
:1049B00025EE45EE68ED7CE5E6CF06E221EE40EE21
:1049C00063EF7CE5E0CF07E225EE44EE64EF7CE5A3
:1049D000DACF06E221EE42EE65EF7CE5D4CF07E2C6
:1049E00025EE46EE66EF7CE5CECF08E221E045EE0F
:1049F00069ED7CE5C8CF81E0C9CF1092B90088E4A9
:104A00008093B8000895B0E0A0E0E9E0F5E20C94EE
:104A10009030B82EEB010E947C286C01EE24E394C8
:104A2000F12CC431D10560F025E0E22EF12CCF3F0E
:104A3000DC0731F0CE0164E170E00E9468307B0158
:104A400084EAA82E94E8992E1092BC00A092BC0093
:104A50000E947C288C018091BC0087FF0DC0809152
:104A6000B900887F8830F9F08091B900887F803163
:104A7000D1F00FEF1FEF08C0C8010E949428E8167C
:104A8000F90648F70EEF1FEFCF3FDC07E9F2C6014A
:104A90000E949428C817D907B8F6C801CDB7DEB769
:104AA000EBE00C94AC30B092BB009092BC000E9442
:104AB0007C288C018091BC0087FF0AC08091B900DE
:104AC000887F883111F08034A1F610E000E0E5CF56
:104AD000C8010E949428E816F90660F7D3CF0F9317
:104AE0001F93CF93DF93EB018093BB0084E8809307
:104AF000BC000E947C288C018091BC0087FF11C003
:104B00002091B900287F81E090E0283211F490E0F4
:104B100080E0919581959109DF91CF911F910F913F
:104B20000895CF3FDC0741F3C8010E949428C817BD
:104B3000D90710F78EEF9FEFEFCF0F931F93CF930F
:104B4000DF93EC0184EC8093BC000E947C288C01F4
:104B50008091BC0087FF08C08091BB0090E0DF918E
:104B6000CF911F910F910895CF3FDC0789F3C801C2
:104B70000E949428C817D90758F78EEF9FEFEFCF00
:104B80000F931F93CF93DF93EC0184E88093BC00D5
:104B90000E947C288C018091BC0087FF08C0809116
:104BA000BB0090E0DF91CF911F910F910895CF3F0F
:104BB000DC0789F3C8010E949428C817D90758F761
:104BC0008EEF9FEFEFCFB0E0A0E0E9EEF5E20C94BE
:104BD00093306B018A017901B9010E940325E60136
:104BE0000C0D1D1DC017D10711F097FF08C024E957
:104BF0002093BC00CDB7DEB7E8E00C94AF30B7012E
:104C000089910E946F25EECFB0E0A0E0EAE0F6E2E5
:104C10000C949330C62F6A017901B8010E940325D4
:104C200097FD0CC0B8018C2F0E946F25E601EC0C9B
:104C3000FD1CCE15DF0511F097FF08C024E9209375
:104C4000BC00CDB7DEB7E8E00C94AF30B801899175
:104C50000E946F25EECFB0E0A0E0E1E3F6E20C9415
:104C60009330F82EE62EEA016901B8010E9403256F
:104C700097FD15C0B8018E2D0E946F2597FD0FC0BE
:104C8000B8018F2D81600E940325F12CE12C21E0D9
:104C9000C21AD108EC14FD04E0F497FF0DC024E91A
:104CA0002093BC001816190614F490E080E0CDB7EC
:104CB000DEB7E8E00C94AF30C8010E949D2597FD57
:104CC00004C0FE01EE0DFF1D80832FEFE21AF20AF1
:104CD000E1CF97FDE4CFC8010E94C02597FDDFCF4B
:104CE000CC0DDD1D8883DBCF84E98093BC00089563
:104CF0008093BA0085EC8093BC0008951F920F92B8
:104D00000FB60F9211242F933F934F935F936F939E
:104D10007F938F939F93AF93BF93CF93DF93EF9343
:104D2000FF938091B900887F8038F9F038F48823A8
:104D300009F48EC08036A1F081E035C0883A11F0C8
:104D4000883BD1F7E091DC02F0E0E45EFA4F80812D
:104D50008093BB008091DC028F5F8093DC02ECCFFC
:104D60001092DB021092DD02E7CF8091DB0281110D
:104D700039C08091BB008093DC028091DC028C30D2
:104D800078F11092DC0280E091E09093DB02409198
:104D9000DC0220910501309106014217130609F04B
:104DA00090E09093DD029091BC008295880F880F6F
:104DB000807C892B85688093BC00FF91EF91DF9107
:104DC000CF91BF91AF919F918F917F916F915F91A3
:104DD0004F913F912F910F900FBE0F901F901895FC
:104DE00081E0D2CFE091DC02F0E08091BB00E45E94
:104DF000FA4F80838091DC028F5F8093DC02809188
:104E0000DD02882309F498CFC091A801D091A901AF
:104E1000A88188E0A802D0011124AC5FBE4F16968D
:104E2000ED91FC911797309709F486CF14962D9148
:104E30003C9115972C0F3D1F11966D917C91129707
:104E40006C0F7D1F13964C9113978C91099574CF1D
:104E50001092BC0071CF9093C3018093C20108955A
:104E60009093E4028093E30208950E948B178111CE
:104E700003C08091DE020895E091E302F091E40224
:104E8000309729F00190F081E02D0995089580E098
:104E900008950E9435270895E091E302F091E4021D
:104EA000309721F00280F381E02D0995089520913B
:104EB000E1023091E2022817390771F09093E20283
:104EC0008093E102E091E302F091E402309721F057
:104ED0000680F781E02D099508952091DF02309139
:104EE000E0022817390771F09093E0028093DF0207
:104EF000E091E302F091E402309721F00084F18523
:104F0000E02D099508959C012E5F3F4FAC01485F4D
:104F10005F4F80E02417350709F40895F901919156
:104F20009F019923B9F38F5FF5CF662349F0FC0108
:104F3000329608962191261729F0E817F907D1F73C
:104F400080E0089581E008959C01FC0132969FEF76
:104F500080E04191461751F09F3F19F4411101C083
:104F6000982F8F5F8630A9F79F3F09F40895290F86
:104F7000311D97FD3A95F90162830895FC0132963F
:104F800008962191261303C0DF0111971C92E817A0
:104F9000F907B9F708950E94A42708950E94BE2733
:104FA0000895029626E0FC0111922A95E9F70895EA
:104FB00008950E94D8270895811106C081E080934A
:104FC000E5020E94D927089582E0F9CF83E080931B
:104FD000E5020E94D92708950E94DC27089581E008
:104FE0008093E5020E94D92708950E94EF27089533
:104FF00008950E94E6070895089508950E94F827ED
:105000000895CF930E94FC270E940B170E94FD2752
:10501000C0E08C2F0E94E715811105C0CF5FCC3016
:10502000C1F7CF91089581E0FCCF85B7806885BF37
:1050300085B7806885BF08951F921FB61F921124FF
:105040008F939F93AF93BF938091E602811113C01A
:105050008091280590912905A0912A05B0912B05F2
:105060004196A11DB11D8093280590932905A09319
:105070002A05B0932B05BF91AF919F918F911F90FF
:105080001FBE1F90189580913005843031F10E9429
:1050900081091092E60288E190E020E40FB6F894CE
:1050A000A895809360000FBE2093600083B7817F36
:1050B000846083BF83B7816083BF7894889583B70A
:1050C0008E7F83BF0FB6F894A895809160008861A9
:1050D00080936000109260000FBE08950E94CF0C74
:1050E0000E948809089582E084BD93E095BD9AEFFF
:1050F00097BD80936E0008952FB7F894809128058E
:1051000090912905A0912A05B0912B052FBF0895F4
:105110002FB7F894609128057091290580912A0590
:1051200090912B052FBF08959C014FB7F894809163
:10513000280590912905A0912A05B0912B054FBF14
:10514000821B930B0895CF92DF92EF92FF922FB7BD
:10515000F894C0902805D0902905E0902A05F09099
:105160002B052FBFA7019601261B370B480B590BA8
:10517000CA01B901FF90EF90DF90CF900895789425
:105180001F921FB61F9211248F939F93AF93BF93CB
:105190008091280590912905A0912A05B0912B05B1
:1051A0000196A11DB11D8093280590932905A09318
:1051B0002A05B0932B05BF91AF919F918F911F90BE
:1051C0001FBE1F90189587E797E79093010880937B
:1051D000000888E19AE00FB6F894A89580936000E3
:1051E0000FBE90936000FFCF88E19AE00FB6F8946D
:1051F000A895809360000FBE90936000FFCF8091D0
:10520000F20208950895CF93DF93EC0181E080933B
:10521000E9008FEF9091E800815095FD06C095ED73
:105220009A95F1F700008111F5CF8091E80085FF94
:1052300014C050E040E068E070E0CE010E94802B96
:105240008091E8008E778093E80088E0FE01AAEE66
:10525000B2E001900D928A95E1F7DF91CF91089528
:105260008093E7027093E9026093E8028091300531
:105270008430F9F48093E9008FEF9091E800815039
:1052800095FD06C095ED9A95F1F700008111F5CFD7
:105290008091E80085FF0DC050E040E063E070E0E1
:1052A00087EE92E00E94802B8091E8008E778093B9
:1052B000E8000895BC0184E00E9430290895BC01F3
:1052C00083E00E94302908950895CF93FC01603255
:1052D00021F580913005843001F5C091E900CF704F
:1052E0002091EC00922F917020FD90E8C92B82E074
:1052F0008093E9008091E80080FF0CC050E040E01E
:1053000060E270E0CF010E94802B8091E8008E77F0
:105310008093E800CF70C093E900CF910895809109
:105320002F05811109C00E945F2D0E94BC2D809124
:10533000E20084608093E200089510922F050895A2
:105340000E94EF27089560912C0581E0611101C052
:1053500080E00E94E62708959091300581E0943026
:1053600009F080E060912C050E94EC27089542E04E
:1053700061EC81E00E94DB2C42E261EC84E00E945F
:10538000DB2C42E261EC82E00E94DB2C42E260EC2A
:1053900083E00E94DB2C9091300581E0943009F08D
:1053A00080E060912C050E94DC27089580913205F1
:1053B000833009F463C030F48130E1F1823009F4C4
:1053C000A0C008958A3009F48CC08B3009F471C0F4
:1053D000893009F052C080913105813209F04DC009
:1053E0008091350590913605009719F0029709F0E4
:1053F00044C08091E800877F8093E8008091E800B6
:1054000082FF37C09091F3008091F200029731F44F
:105410008091F100813011F0863021F48091F1000B
:105420008093F2028091E8008B778093E8000E94DD
:105430000F2D23C080913105813AF9F48091E80065
:10544000877F8093E8008091350590913605892B00
:1054500061F468E08AEE92E070E00E941E2C809178
:10546000E8008B778093E800089560E090E080E0AA
:10547000F3CF809130058111C1CF0895809131051E
:10548000813AD9F78091350590913605892BA9F796
:105490008091E800877F8093E8008091E80080FF9A
:1054A000FCCF809137018093F1008091E8008E77E6
:1054B000BCCF80913105813201F780913505909103
:1054C0003605892BD1F68091E800877F8093E8002C
:1054D0000E940F2D80913305809337010E94CF0CDD
:1054E000089580913105813241F68091E800877FEF
:1054F0008093E8000E940F2D809134058093F30281
:10550000089580913105813A09F0B7CF8091E80084
:10551000877F8093E8008091E80080FFFCCF809136
:10552000F302C1CF84B7877F84BF0FB6F894A895E4
:1055300080916000886180936000109260000FBECF
:1055400080E890E00FB6F89480936100909361003A
:105550000FBE0E94F52708950E945F2D0E94BC2D6A
:10556000E2EEF0E080818460808378940E943B309A
:1055700008958BE291E00E943027089580913005D4
:10558000853031F480913005853019F00E946E2805
:1055900008950E94432880912E05882399F30E9444
:1055A0000128882379F30E946A2B0E94CF0C2FEFE9
:1055B00083E294EF215080409040E1F700C000006A
:1055C000E1CFA0E2B0E0E7EEFAE20C9499308091EE
:1055D0003005843009F583E08093E9008091E8008C
:1055E00082FF1AC08091E80090E085FF09C050E07A
:1055F00040E060E270E0CE0101960E94CF2B91E086
:105600008091E8008B778093E800992329F060E28D
:10561000CE0101960E947F1AA096E2E00C94B5306C
:105620000E94132B0895292F33272330310521F1B0
:1056300068F42130310509F443C02230310509F402
:1056400044C090E080E030E020E026C02132310507
:1056500051F122323105A9F76330710590F7FB0152
:10566000EE0FFF1FEB54FE4F208131816E547E4FB1
:10567000FB01808190E010C099278130910581F075
:10568000009729F00297E9F6E0E8FAE002C0E4ECBE
:10569000FAE0849190E09F01FA013183208308951C
:1056A000E6EAFAE0F6CF6330710558F6660F771F29
:1056B000FB01E554FE4F2081318189E090E0ECCF81
:1056C00082E190E023E23BE0E7CF8BE590E028EC3D
:1056D0003AE0E2CF80E189BD82E189BD09B400FEF4
:1056E000FDCF8091D8008F7D8093D8008091E0001D
:1056F00082608093E0008091E00081FDFCCF0895FE
:10570000AF92BF92CF92DF92FF920F931F93CF93EE
:10571000DF936C01EB018A010E942E2DF82E81117E
:1057200023C00115110539F0F80180819181C81B52
:10573000D90BC80ED91EB12CA12C2097A9F08091AD
:10574000E80085FD22C08091E8008E778093E80014
:1057500001151105A1F0F80180819181A80EB91EF3
:10576000B182A08285E0F82E8F2DDF91CF911F911D
:105770000F91FF90DF90CF90BF90AF9008950E945F
:105780002E2D8823D1F2F82EEFCFF60181916F01F3
:105790008093F1002197FFEFAF1ABF0ACECFAF92EF
:1057A000BF92CF92DF92FF920F931F93CF93DF931D
:1057B0006C01EB018A010E942E2DF82E811123C06D
:1057C0000115110539F0F80180819181C81BD90BB1
:1057D000C80ED91EB12CA12C2097A9F08091E80009
:1057E00085FD22C08091E8008B778093E800011549
:1057F0001105A1F0F80180819181A80EB91EB18236
:10580000A08285E0F82E8F2DDF91CF911F910F910F
:10581000FF90DF90CF90BF90AF9008950E942E2D03
:105820008823D1F2F82EEFCF8091F100F601819319
:105830006F012197FFEFAF1ABF0ACECFFC01809115
:1058400037059091380586179707A0F06115710507
:1058500029F49091E8009E779093E80090E061151C
:10586000710551F4911108C08091E80082FF34C0A5
:1058700080E00895BC01F2CF809130058823C1F10A
:105880008530C1F18091E80083FD30C08091E8004F
:1058900082FDEACF8091E80080FFE1CF8091F300A4
:1058A0002091F200382F6115710519F0283031056B
:1058B00058F091E02830310509F090E02091E8009F
:1058C0002E772093E800CBCF81918093F100615037
:1058D00071092F5F3F4FE7CF80913005882341F05A
:1058E000853041F08091E80083FFBECF81E00895CC
:1058F00082E0089583E00895FC018091370590913E
:10590000380586179707A0F06115710529F4809175
:10591000E8008E778093E80090E06115710551F4FE
:10592000911108C08091E80082FF35C080E00895A1
:10593000BC01F2CF809130058823C9F18530C9F1CF
:105940008091E80083FD31C08091E80082FDEACFBC
:105950008091E80080FFE1CF8091F3002091F20078
:10596000382F6115710519F02830310558F091E094
:105970002830310509F090E08091E8008E7780931F
:10598000E800CBCF84918093F1003196615071098A
:105990002F5F3F4FE6CF80913005882341F085305F
:1059A00041F08091E80083FFBDCF81E0089582E05F
:1059B000089583E00895982F973028F08F70809392
:1059C000E90081E008959093E900242F762F50E0BC
:1059D000981731F07091EC002091ED005091F0009B
:1059E00021FD02C09F5FE8CF3091EB003E7F3093F6
:1059F000EB003091ED003D7F3093ED003091EB00F6
:105A000031603093EB007093EC002093ED005093E5
:105A1000F0002091EE0027FDE5CF80E00895809111
:105A2000310587FF13C08091E80082FF06C0809196
:105A3000E8008B778093E80004C0809130058111E5
:105A4000F2CF0895809130058823D9F38091E80042
:105A500080FFF8CF8091E8008E77ECCF2091E400B2
:105A60003091E50095E6A9012091EC00822F81702C
:105A700020FF06C08091E80080FF06C080E0089506
:105A80002091E80022FD1AC080913005882389F01A
:105A9000853089F08091EB0085FD0FC02091E400F6
:105AA0003091E50042175307F9F29150E1F684E096
:105AB000089582E0089583E0089581E008950E94AA
:105AC000CE2D0E94D62DE0EEF0E0808181608083B3
:105AD000E8EDF0E080818F77808319BCA7EDB0E01E
